:020000040800F2
:10000000E05B0020F1C700084D0200084F02000825
:1000100053020008570200085B02000800000000BD
:100020000000000000000000000000005F02000867
:100030006102000800000000978E000863020008BB
:100040000BC800080BC800080BC800080BC8000844
:100050000BC800080BC800080BC800080BC8000834
:100060000BC800080BC800080BC80008AD02000848
:100070005F09000893090008ED090008270A000835
:100080000BC80008970700080BC800080BC8000839
:100090000BC800080BC800080BC80008FF050008C3
:1000A0000BC800080BC800080BC800080BC80008E4
:1000B0000BC800080BC800080BC800080BC80008D4
:1000C0000BC800080BC800080BC800080BC80008C4
:1000D0000BC80008AF08000831070008070900082E
:1000E000DF0300080BC800080BC800080BC8000895
:1000F0000BC800080BC800080BC800080BC8000894
:100100000BC800080BC80008D50200080BC800087F
:10011000D50700080BC800081303000833080008BF
:100120000BC800080BC800080BC8000885020008AF
:1001300000F002F800F05AF80AA090E8000C82449F
:100140008344AAF10107DA4501D100F04FF8AFF27C
:10015000090EBAE80F0013F0010F18BFFB1A43F0A5
:10016000010318475CE900007CE900000A444FF0F5
:10017000000C10F8013B13F0070408BF10F8014B06
:100180001D1108BF10F8015B641E05D010F8016B4B
:10019000641E01F8016BF9D113F0080F1EBF10F8AF
:1001A000014BAD1C0C1B09D16D1E58BF01F801CBD2
:1001B000FAD505E014F8016B01F8016B6D1EF9D555
:1001C0009142D6D37047000000230024002500266A
:1001D000103A28BF78C1FBD8520728BF30C148BFAA
:1001E0000B6070471FB51FBD10B510BD0CF0D4FBE0
:1001F0001146FFF7F7FF00F009F80CF0F2FB03B42B
:10020000FFF7F2FF03BC0CF0F5FB000000B585B072
:1002100009F009FB032000214FF40072084BCDE9DF
:100220000132CDE903100A200346064A0090064831
:100230000BF0EAFA09F0E2FB002005B000BD000077
:100240006C0E00206816002071140008704700BF73
:10025000FEE700BFFEE700BFFEE700BFFEE7704716
:10026000704710B508F0F6FD0446FE480078401CC3
:10027000FC490870204608F0F1FD09F0F6FB09F092
:10028000FCFA10BD10B509F0EAFAF74806F09FFB3A
:1002900048B1F54806F090FBF34806F0ACFBF34894
:1002A00000680BF013F909F0E8FA10BD10B509F079
:1002B000D6FA022006F08BFB48B1022006F07CFB48
:1002C000022006F098FBEA4800680BF0FFF809F0FE
:1002D000D4FA10BD10B509F0C2FA0121E54808F0C2
:1002E000A0FB98B10121E34808F098FB0121E14807
:1002F00008F0A8FB8020E049087000204870887052
:10030000C8700871DD4800680AF0F2FA09F0B5FA21
:1003100010BDF8B50024002500200090002609F04B
:100320009EFA0121D64808F07CFB002854D0012118
:10033000D34808F073FB0121D14808F083FB07F094
:100340008EFA07F08CFA02F08BFACE4800F070407B
:1003500000F10070CB49C1F3130100EB41100068BC
:1003600078B1C94800680AF051FF50B90F21C74859
:1003700000680AF024FE6A461921C34800680BF0A1
:10038000FAF8C3480078401CC14908700846007854
:10039000322811DBBF4800680AF038FF044604EB3E
:1003A0008400BD4948776A460021BA4800680BF0CE
:1003B000E2F80020B6490870B8480078401CB749F8
:1003C000087008460078322806DBB54800680BF054
:1003D0007DF80020B149087009F04FFAF8BD10B55A
:1003E00009F03DFA07F03BFA4FF4006006F086FB97
:1003F000F0B3AC48006800F40060C0B900BF002151
:10040000A04800F0704000F100709E4AC2F3130251
:1004100000EB4210016100BF9F48007D20F0080002
:100420009D4908754FF4006006F079FB24E000BF99
:100430000121944800F0704000F10070914AC2F32D
:10044000130200EB4210016100BF9348007D20F0D1
:1004500008000830904908750846007D20F0040027
:1004600008754FF4006006F05AFB1321874800E03E
:1004700002E000680AF0A3FD4FF4805006F03EFB56
:10048000D0B38948006800F48050C0B98248807DAC
:1004900000F06F008049887500BF0021794800F0A6
:1004A000704000F10070774AC2F3130200EB421073
:1004B000416000BF4FF4805006F031FB1CE000BFEC
:1004C0000121704800F0704000F100706D4AC2F3E5
:1004D000130200EB4210416000BF6F48807D40F086
:1004E00010006D4988754FF4805006F018FB0E21FE
:1004F000664800680AF063FD4FF4005006F0FEFA0B
:10050000D0B36948006800F40050C0B96248807DEB
:1005100000F05F006049887500BF0021594800F075
:10052000704000F10070574AC2F3130200EB421012
:10053000416000BF4FF4005006F0F1FA1CE000BF2C
:100540000121504800F0704000F100704D4AC2F3A4
:10055000130200EB4210416000BF4F48807D40F025
:1005600020004D4988754FF4005006F0D8FA0E214E
:10057000464800680AF023FD4FF4804006F0BEFABA
:10058000D0B34948006800F48040C0B94248807D3B
:1005900000F03F004049887500BF0021394800F055
:1005A000704000F10070374AC2F3130200EB4210B2
:1005B000416000BF4FF4804006F0B1FA1CE000BF7C
:1005C0000121304800F0704000F100702D4AC2F364
:1005D000130200EB4210416000BF2F48807D40F0C5
:1005E00040002D4988754FF4804006F098FA0E219E
:1005F000264800680AF0E3FC09F03FF910BD10B589
:1006000009F02DF94FF4007006F078FA002864D054
:1006100026480078C0F3C00000287CD024488068B9
:1006200000F40070E0B90020224908602249086007
:1006300001201F49486100BF0121124800F07040AD
:1006400000F100700F4AC2F3130200EB4210C160C8
:1006500000BF1148007D20F0100010300E492DE041
:100660003CE00000E90100200000021038000020FA
:1006700034000020000C00405C01002054000020E9
:1006800000100040A00000201000002050000020BA
:100690000200002014000020883400200300002005
:1006A0002400002008140140080C0140A70000208D
:1006B0000010014064000020680000200875084612
:1006C000007D20F0040008754FF4007006F027FA52
:1006D0001021EB4800680AF072FC26E00120E9498D
:1006E000086100BF0021E84800F0704000F1007090
:1006F000E54AC2F3130200EB4210C16000BFE348B9
:10070000007D20F01000E14908754FF4007006F0FC
:1007100006FA0AE0FFE7DD48007D20F01000DB4923
:1007200008754FF4007006F0FAF909F0A6F810BD4C
:1007300010B5002409F093F840F22441D44808F0A1
:1007400045FB28B3D2480088C4B2D148001D0088B8
:10075000C4B207F084F80021CE4806F0FEF8CD4878
:1007600006F012F9C0F10C00CB4908700846017878
:10077000CA4803F029FACA480068401CC849086002
:100780000C21C44806F0FEF80121C24806F0E5F845
:1007900009F073F810BD10B509F061F84FF0007062
:1007A00006F015F998B10021BA48143006F0D5F8D2
:1007B0004FF0007006F000F94FF0007006F01BF9E2
:1007C00000BF4021B24808F0EBFA0028F9D009F048
:1007D00054F810BD10B5002409F041F840F224414E
:1007E000B04808F0F3FA08B3AE480088C4B2AD4888
:1007F000001D0088C4B20021AB4806F0AEF8AA483C
:1008000006F0C2F8C0F14000A84908700846007818
:10081000032803DDA64800680AF0D1FB4021A24866
:1008200006F0B0F80121A04806F097F809F025F885
:1008300010BD10B509F013F801219E4808F0F1F839
:1008400090B301219B4808F0E9F80121994808F08C
:10085000F9F899480078401C9749087008460078D4
:10086000022821DD0021934807F012FE00218E4866
:1008700006F073F88C4806F087F8C0F140008F4905
:10088000086008460068032803D9894800680AF010
:1008900096FB4021844806F075F80121824806F055
:1008A0005CF800208449087008F0E7FF10BD10B51F
:1008B000002408F0D4FF40F22441814808F086FA71
:1008C000F0B17F480088C4B27D48001D0088C4B2E2
:1008D00070486C38806D4FF6FE7108406D496C3978
:1008E00088650846C06DC0F1200076490870202058
:1008F00068496C39C8650846806D40F0010088651C
:1009000008F0BBFF10BD10B5002408F0A8FF40F2AE
:1009100024416D4808F05AFAF0B16B480088C4B21F
:100920006948001D0088C4B25A486C38006B4FF605
:10093000FE71084057496C3908630846406BC0F1A6
:10094000200062490870202052496C3948630846EB
:10095000006B40F00100086308F08FFF10BD10B578
:1009600008F07DFF202006F032F878B100214948D8
:10097000503805F0F2FF202006F01EF8202006F087
:100980003AF8012143483C3805F0E7FF08F075FFCD
:1009900010BD10B508F063FF4FF4007006F017F8B3
:1009A00008B33C483C3805F0EFFFC0F120040021BB
:1009B00038483C3805F0D1FF4FF4007005F0FCFFDB
:1009C0004FF4007006F017F8002C00DC00BF202068
:1009D00030496C3948630846006B40F001000863F9
:1009E00000203B49487008F048FF10BD10B508F0E2
:1009F00036FF4FF4005005F0EAFF88B1002125488A
:100A0000283805F0AAFF4FF4005005F0D5FF4FF449
:100A1000005005F0F0FF01211E48143805F09DFF3D
:100A200008F02BFF10BD10B508F019FF4FF400308F
:100A300005F0CDFF08B317483C3805F0A5FFC0F11D
:100A4000200400211348143805F087FF4FF40030CC
:100A500005F0B2FF4FF4003005F0CDFF002C00DCB4
:100A600000BF00201B49487020200A496C39C86526
:100A70000846806D40F00100886508F0FEFE10BD5C
:100A80005000002000100140A00000208834002009
:100A9000004400406C000240040000203934002073
:100AA0004C010020004C00403004024005000020B2
:100AB000300000200014004000000020080000204A
:100AC000003801400C000020004800400D000020CC
:100AD000580100205401002008B5002000900AF0C1
:100AE000ABFB6449086000200AF0A6FB624908607D
:100AF00000200AF0A1FB6149086000200AF09CFB7D
:100B00005F49086000200AF097FB5E4908600020FA
:100B100009F099FD5C49086019200AF08DFB5B49DA
:100B2000086000200AF088FB5949086001200AF09B
:100B300083FB5849086000200AF07EFB5649086094
:100B400000200AF079FB5549086000200AF074FB88
:100B50005349086000200AF06FFB524908600020EA
:100B60000AF06AFB504908600A2150480AF07DF8F3
:100B70004F4908600A214F480AF077F84E4908604B
:100B80000A214E480AF071F84D4908600A214D4883
:100B90000AF06BF84C4908606B4614220B214B4855
:100BA00009F038FF4A49086008BD00B585B0032048
:100BB00000214FF48072474BCDE90132CDE903109B
:100BC00010200346444A009044480AF01DFE0320CA
:100BD00000214FF40072424BCDE90132CDE9031000
:100BE000062003463F4A00903F480AF00DFE0320CE
:100BF00000214FF400723D4BCDE90132CDE90310E5
:100C00000E2003463A4A00903A480AF0FDFD0320C0
:100C100000214FF48072384BCDE90132CDE9031049
:100C200008200346354A009035480AF0EDFD0320C0
:100C300000214FF40072334BCDE90132CDE90310AE
:100C400009200346304A009030480AF0DDFD0320B9
:100C500000214FF400722E4BCDE90132CDE9031093
:100C6000052003462B4A00902B480AF0CDFD05B025
:100C700000BD0000340000203800002044000020A7
:100C80003C00002040000020540000201000002004
:100C900014000020180000201C000020200000206C
:100CA00024000020280000202C0000206C160020CA
:100CB00048000020BC2A00205000002044020020F0
:100CC00030000020942600204C000020AC3400208E
:100CD000EC0000206C02002068060020B50D000822
:100CE0006C060020680E0020B51200089416002043
:100CF000901E00201F1A0008BC260020B82A0020E1
:100D00001D1C0008941E002090260020891B00084E
:100D1000E42A0020E0320020DD1E00082DE9F04129
:100D20000646002400250027FE48016830460DF0E5
:100D300039FA03D86FF01300BDE8F081F948D0F814
:100D4000301230460DF02EF901D87820F4E7002457
:100D50000CE004EB4400F34A02EB0010016830465B
:100D60000DF020FA00D203E0601CC4B20C2CF0DBC2
:100D700000BF14B96FF01300DEE7601EC4B2002597
:100D80000DE004EB4400E74A02EB001050F8251098
:100D900030460DF007FA00D203E0681CC5B20C2DF6
:100DA000EFDB00BF04EB440005EB8000143847B2D2
:100DB0003846C1E790B000200E90142109A80BF02E
:100DC0007CFD142104A80BF078FD00BF4FF0000952
:100DD000CB4600BFD44800680AF078FB0620D34910
:100DE00008700121D24805F056FB0121D14805F0D9
:100DF00052FB01200AF0D0FF00BF0EAA0021CE480E
:100E000000680AF0AEFA0EAA0021CC4800680AF089
:100E1000A8FA06F024FD09A9C94801F08EFE099838
:100E200004900A9805900B9806900C9807900D98DE
:100E30000890C44800780A2805DAC2480078401CA7
:100E4000C049087082E040F6E441079848434FF4F7
:100E50009051B0FBF1F528460DF090F882465146CE
:100E6000B9480DF0D1F901900CF0A4FE0746884670
:100E700050460CF09FFE4FF03332B44BCDE90001E9
:100E80000CF06EFC3A464346CDE902010CF07AFACA
:100E900005460CF089F982465046FFF73FFFAC4902
:100EA0000870084690F90000642806DDA948007C17
:100EB00020F00200801CA7490874A74890F90000A0
:100EC000642806DDA348407C20F00200801CA14974
:100ED000487440F6E441069848434FF49051B0FB03
:100EE000F1F528460DF04AF88246514696480DF035
:100EF0008BF907460CF05EFE05460E4650460CF098
:100F000059FE07464FF03332904B0CF029FC2A462D
:100F10003346CDE900010CF035FACDE902010CF0C1
:100F200043F982465046FFF7F9FE8B49087088481E
:100F300090F90000642804DC084690F90000642859
:100F400004DD0821854800680AF039F808980DF09A
:100F500015F807467C490DF059F8064680490CF013
:100F6000C3FE05460CF0D2FF044604EB44008400A7
:100F700046F2A810844205D97648007D20F0200072
:100F80007449087547F23050844208D9201A4FF44A
:100F90007A71B0FBF1F0C8306E49087722E044F670
:100FA0002060844211D947F2305084420DD8A4F514
:100FB0009C40203800EB800040004FF47A71B0FB79
:100FC000F1F06430634908770CE05CB144F62060CE
:100FD000844207D804EB84004FF47A71B0FBF1F03F
:100FE0005C490877504800680AF010F9002878DD5D
:100FF00047F23050844202D34FF00A0940E047F2F2
:101000004810844202D34FF0090939E046F68E4079
:10101000844202D34FF0080932E046F63030844271
:1010200002D34FF007092BE046F6D210844202D3D8
:101030004FF0060924E046F2A270844202D34FF03A
:1010400005091DE046F2FE50844202D34FF0040928
:1010500016E046F2A040844202D34FF003090FE0AD
:1010600046F2A810844202D34FF0020908E045F688
:10107000C050844202D34FF0010901E04FF0000953
:10108000D94505D129480078401C2849087002E05C
:1010900000202649087025480078062866DB0020D5
:1010A00022490870B9F10B0F7ED2DFE809F0801BEE
:1010B0000E0D0C0B0A090807060000BF00BF00BF99
:1010C00000BF00BF00BF00BF00BF2248007DC0F3CB
:1010D000401028B11F48007D20F020001D490875F0
:1010E00088E08CE01F480078012843D11948007D32
:1010F00020F02000203017490875052117480068A6
:1011000009F05DFF00BF0121174800F0704000F1B9
:101110000070154AC2F3130200EB4210416100BF98
:10112000002024E0E4E30008240000205C0000200C
:1011300000240140003C0140340000203800002021
:10114000F83200206000002000404E4533F3484054
:101150005E000020883400205F0000205000002046
:10116000000090455D000020A000002046E04649B8
:1011700008701BE0454800F0704000F100704349E2
:10118000C1F3130100EB4110406978B100BF0021A9
:101190003E4800F0704000F100703C4AC2F3130278
:1011A00000EB4210416100E023E000BF22E038483C
:1011B000007D20F020002030354908750521354894
:1011C000006809F0FCFE30480078012802D10020B8
:1011D0002D49087000BF01212C4800F0704000F13B
:1011E00000702A4AC2F3130200EB4210416100BFB3
:1011F00000E000BF00BF002027490870CB46022155
:10120000264806F066F8A0B125480088401C24490D
:10121000088008460088202811DB002008804FF451
:1012200000401E491031086001211C4806F06DF88D
:1012300005E01B48008810B10020194908801948B2
:101240000088401C17490880084600880C2804D1F3
:101250004FF40070144948610AE0124800881828C9
:1012600006D14FF400701049086100200D49088034
:1012700001210E4805F00FF901210D4805F00BF989
:1012800002200AF089FDB8E55D000020A0000020E2
:1012900088340020500000205C000020000C014039
:1012A000580000205A000020002001400024014086
:1012B000003C014008B500BF00BF002401215D488B
:1012C00007F0E6F801215C4807F0E2F800BF6A4643
:1012D00000215A4800680AF044F86A46002158483C
:1012E00000680AF03EF85748407E5749C870554894
:1012F000807E88705348407F48705248807F0870D5
:101300000846006851490968401A514908604E482A
:1013100000684E4908604F48407E4F49C8704D48AC
:10132000807E88704B48407F48704A48807F0870B4
:101330000846006849490968401A49490860464812
:10134000006846490860474882684548006841424D
:101350003F480068404290474348807C394989783B
:1013600001F07E0140EA61003F4988740846C07C74
:101370003849897801F07E0140EA61003A49C87431
:101380000846807C18B90846C07C00289FD03648A3
:10139000807C3549C97C40EA0104082C24D007DC54
:1013A0007CB1012C0ED0022C12D0042C3AD115E0C5
:1013B000102C1FD0202C23D0402C27D0802C31D1B2
:1013C0002AE035E006212948006809F0F8FD2FE001
:1013D00004212648006809F0F2FD29E00C21234889
:1013E000006809F0ECFD23E016212048006809F0B0
:1013F000E6FD1DE005211D48006809F0E0FD17E04D
:1014000007211A48006809F0DAFD11E008211748A1
:10141000006809F0D4FD0BE00A211448006809F0C7
:10142000CEFD05E00D211148006809F0C8FD00BFA0
:101430004DE7000000040040000800403C00002090
:1014400040000020883500206C000020640000204F
:1014500074000020AA3500207000002068000020E1
:1014600078000020D80000208834002050000020A0
:1014700088B00020079004AC8046814600BF00265B
:101480000027002501900290039001F090F80120C0
:10149000FE4908610121FE4807F0A7FB07F0DAFCCE
:1014A000FC490860FFF718FBFFF77FFBF94800686D
:1014B00007F0D4FC0E200AF0ECFB4FF40070F64964
:1014C00048610121F54805F01EFF02F051FB00BF05
:1014D0000121F34800F0704000F10070F04AC2F3BF
:1014E000130200EB4210016000BF01F0B9F901F0F6
:1014F000B7F9EC48007D20F00100401CE94908756F
:1015000000BF0121E84806F0C3FF0020E64924316E
:10151000088000BF0121E54806F0BAFF0121E44838
:1015200007F063FB06F0A0F9DE48007D20F0020022
:10153000801CDC49087501200AF02EFCD94802F015
:10154000A0FA00BFDB4800680769002F7ED00020AA
:10155000D9490870DEE1D84800783D5CD74800786A
:1015600040B9552D05D1552020700120D349087070
:101570005526CAE1D1480078012814D1D048017815
:101580000078401CCE4A1070601C45547019C6B2D9
:10159000104600780228ECD1002011460870022085
:1015A000C6490870B1E1C5480078022814D1C44882
:1015B00001780078401CC24A1070E01C4554701934
:1015C000C6B2104600780228D3D100201146087018
:1015D0000320BA49087098E1B8480078032806D17A
:1015E00065717019C6B20420B44908708DE1B34822
:1015F0000078042806D1A5717019C6B20520AF493C
:10160000087082E1AD480078052806D1E5717019AF
:10161000C6B20620A949087077E1A84800780628D4
:1016200017D1A74801780078401CA54A107004F132
:10163000080045547019C6B210460078022898D1A7
:1016400000201146087007209C4900E072E10870F4
:101650005BE19A48007807280BD1A572A07AB042C6
:1016600003D10820954908704FE100209349087084
:101670004BE192480078082894D1E57200208F4908
:101680000870E07AAA288DD1854800F0704000F1FA
:1016900000708349C1F3130100EB4110C0690128B8
:1016A0000DD100BF00217E4800F0704000F10070B5
:1016B0007B4AC2F3130200EB4210C16100BF8148B4
:1016C0000068401C7F49086006F0C9F8754802F0C0
:1016D000D8F97D48006809F0F9FE07AA19217B486E
:1016E000006809F048FFA178627801EB02200CF055
:1016F0002DFC80462179E27801EB02200CF026FCDB
:101700008146734940460CF04DFD0AD2414671486E
:101710000CF07AFD82464FF07E510CF077FA80F0A3
:1017200000486B4948460CF03DFD0AD249466948DD
:101730000CF06AFD82464FF07E510CF067FA80F0A3
:101740000049CDF80480CDF8089001A962480068EE
:1017500009F035FC524800F0704000F1007050492B
:10176000C1F3130100EB4110806901282DD1002144
:1017700040460CF07BFB0AD1002148460CF076FB7A
:1017800005D101A95448006809F019FC1DE045483D
:10179000007D00F05800C0B9414800F0704000F1F1
:1017A00000703F49C1F3130100EB4110406960B97B
:1017B0004A48C07B012803D14948006809F086FEE9
:1017C00001A94548006809F0FAFB607906285BD258
:1017D000DFE800F09903192E373E00BF01213048A1
:1017E00000F0704000F100702D4AC2F3130200EBCC
:1017F0004210016000BF2B48007D20F00100401C1A
:101800002849087580E000BF0021254800F070409D
:1018100000F10070224AC2F3130200EB4210016093
:1018200000BF2048007D20F001001E4908756BE0D4
:10183000A0792C490870E0794870207A2A4908700C
:1018400062E01848007D20F00200164908755BE050
:101850001448007C10B91348407C18B1002011498D
:10186000087448740F48807C10B90E48C07C60B181
:101870000C48807C00F0C0000A4988740846C07C8F
:1018800000F0C000C87431E03DE03BE000100140D2
:10189000004C0040C801002000200140000C014025
:1018A000A000002088340020000C00400010004000
:1018B00000440040F00000207D0000207C0000205B
:1018C0007E000020500100201400002010000020A5
:1018D00000FEFF4600FF7F474C000020C4000020B0
:1018E0002C000020A5000020A70000204A2013495A
:1018F0000870002048708870C8700871104800682F
:1019000008F0F6FF00E000BF00BF0E480078401C62
:101910000C490870387B0B49097888423FF71BAEA9
:10192000094938690968086139460848006809F0BA
:1019300012F9002701200AF02FFA03E65C010020CB
:10194000540000207D000020F0000020EC0000206A
:101950002DE9FC4705464FF0FF370020019000902D
:101960008046002441F699196A460021284603F072
:10197000E5FF06469DF80000B4284AD10122152152
:10198000284604F0CCF801AA4D21284603F0D6FFE2
:101990009DF8040018B9FE242046BDE8FC8701220A
:1019A0001821284604F0BBF806200AF0F5F96A462B
:1019B0000021284603F0C2FF06469DF80000B42827
:1019C00023D101AA4F21284603F0B8FF9DF8040057
:1019D000042816D16A466221284603F0AFFF9DF81D
:1019E0000000FF2809D09DF800809DF800405B486A
:1019F000007820445A4908700EE0FF2058490870CA
:101A00000AE0FF205649087006E0FF20544908709C
:101A100002E0FF205249087051480078BDE700BF3E
:101A200000BF00BF00BF00BF002400BF3C204D49E5
:101A300008701B20487000BF04200AF0ADF9002098
:101A40004949087084E04948007800F00100002806
:101A500070D04749444A1278885C03F070FE04460F
:101A600044484149097844543E4908780CF086FAC4
:101A7000074641483C4A127850F8221038460CF08C
:101A8000C5FA054620460CF079FA064629460CF0C0
:101A900089FB15D3334908780CF070FA07463748AC
:101AA000314A127850F8221038460CF0AFFA054649
:101AB00020460CF063FA064629460CF073FA1ED253
:101AC00000BF01212E4800F0704000F100702C4A48
:101AD000C2F3130200EB4210816000BF25481738A3
:101AE000807D21490A780121914008432149173915
:101AF000887511212348006809F061FA22E000BFCF
:101B000000211F4800F0704000F100701C4AC2F331
:101B1000130200EB4210816000BF16481738807D29
:101B200011490A7801219140884312491739887573
:101B300008E0FFE70F481738807D00F0F0000D49FE
:101B400017398875002408480078401C0649087039
:101B5000054800780328BFF66FAF74E784010020C2
:101B600080000020A50000209D000020A70000208C
:101B7000980000209F34002084000020E4320020E0
:101B8000A00000205000002008B500240020009094
:101B900032200AF001F900BF01211D4800F0704019
:101BA00000F100701A4AC2F3130200EB4210816187
:101BB00000BF00BF6A4632211648006809F031F9BB
:101BC00004469DF80000D8B9002120680CF04EF9B9
:101BD0000FD1002160680CF049F90AD10E48C07B92
:101BE0000128E7D0227A0C4DD4E900012B699847EF
:101BF000E0E7227A084DD4E900012B699847D9E73C
:101C0000054800221146036910469847D2E70000B4
:101C1000A00000204C000020C400002008B50020D7
:101C20000090002400BF6A460021A748006809F020
:101C3000F8F8C4B2A548007D20F00400A349087557
:101C4000172C7DD2DFE804F07C0C1F7C7C327CF109
:101C5000457C6B58807C93ABBEF27CD67CEFEE006B
:101C60009B4800F0704000F100709949C1F31301E6
:101C700000EB4110806928B19648002211460369A3
:101C8000104698471EE1924800F0704000F1007045
:101C90008F49C1F3130100EB4110806928B18D48D1
:101CA000002211460369104698470BE1884800F06E
:101CB000704000F100708649C1F3130100EB411040
:101CC000806928B18348002211460369104698476D
:101CD000F8E07F4800F0704000F100707C49C1F3EB
:101CE000130100EB4110806928B17A4800221146A7
:101CF000036910469847E5E0754800F0704000F130
:101D000000707349C1F3130100EB4110806928B1E1
:101D1000704800221146036910469847D2E06C488B
:101D200000F0704000F100706949C1F3130100EB4D
:101D30004110806938B1674800221146036900E00C
:101D4000B9E010469847BDE0614800F0704000F1EE
:101D500000705F49C1F3130100EB4110806928B1A5
:101D60005C4800221146036910469847AAE05A4889
:101D70000078C0F3400088B1554800F0704000F191
:101D800000705349C1F3130100EB4110806928B181
:101D900050480122002103690846984792E04C48C8
:101DA00000F0704000F100704949C1F3130100EBED
:101DB0004110806928B14748012200210369084683
:101DC00098477FE044480078C0F3C00088B140489D
:101DD00000F0704000F100703D49C1F3130100EBC9
:101DE0004110806928B13B4802220021036908465E
:101DF000984767E038480078C0F3800088B13448DD
:101E000000F0704000F100703149C1F3130100EBA4
:101E10004110806928B12F4801220021036908463A
:101E200098474FE02DE019E000E03DE02A480078B7
:101E300000F0010088B1264800F0704000F1007009
:101E40002349C1F3130100EB4110806928B12148F7
:101E50000122002103690846984733E01C4800F03E
:101E6000704000F100701A49C1F3130100EB4110FA
:101E7000806928B117480022114603691046984727
:101E800020E0134800F0704000F100701049C1F3E9
:101E9000130100EB4110806928B10E480022114661
:101EA0000369104698470DE00A480022114603696D
:101EB0001046984706E0074800221146036910467D
:101EC000984700BFAFE60000500000208834002093
:101ED000A0000020C4000020A700002008B500BF1B
:101EE00015E06A4600210A48006808F041FC0446F3
:101EF0009DF8000058B9A37862782178054801F070
:101F00008DFE2379E2782178034801F087FEE8E727
:101F100054000020003801400048004008B501216D
:101F2000102005F021FE0121080205F01DFE4020D1
:101F3000ADF8000003208DF8020010208DF803009A
:101F40006946FE4805F032F96946FD4805F02EF96C
:101F500008BD30B589B005460C460121042005F0C6
:101F600003FE0121084605F00CFE0220ADF820001A
:101F700018208DF8230003208DF8220008A9F148CD
:101F800005F014F9A8B2ADF81800A0B2ADF814002D
:101F90000020ADF81A008DF81C00ADF8160005A958
:101FA0004FF0804005F018FF6020ADF804000120DC
:101FB000ADF806000020ADF80A000220ADF80C00D4
:101FC00001A9400705F087FF0821C80606F099FB24
:101FD0000121880706F05CFB0121880706F064FAFE
:101FE0000121880706F054FA09B030BD30B589B038
:101FF00005460C460121102005F0B6FD01214803DD
:1020000005F0B2FD8020ADF8200018208DF82300E7
:1020100003208DF8220008A9C84805F0C7F8A8B227
:10202000ADF81800A0B2ADF814000020ADF81A0009
:102030008DF81C00ADF8160005A9C34805F0CCFECC
:102040006020ADF804000120ADF806000020ADF8D6
:102050000A000220ADF80C0001A9BB4805F03BFFC7
:102060000821B94806F04DFB0121B74806F010FBE6
:102070000121B54806F018FA0121B34806F008FA24
:1020800009B030BD1FB50121084605F06DFD0121E5
:10209000102005F069FD0921022005F09DF94FF49B
:1020A0000070ADF80C0003208DF80E0004208DF8B0
:1020B0000F0003A9A14805F079F84FF400700190D2
:1020C00000208DF8080010208DF8090001208DF8FF
:1020D0000A0001A804F0ACFC17208DF800000420D1
:1020E0008DF8010000208DF8020001208DF803001A
:1020F000684604F0D4F81FBD0EB50121084605F06E
:1021000033FD0121202005F02FFD0B21032005F0D8
:1021100063F94FF48060ADF8080003208DF80A00E1
:1021200004208DF80B0002A9884805F03FF84FF411
:102130000060009000208DF8040010208DF805004C
:1021400001208DF80600684604F072FC0EBD1FB534
:102150000121082005F008FD0121084605F004FDD5
:102160000C21012005F038F90D21012005F034F98A
:102170000E21012005F030F94FF4E040ADF80C00DD
:1021800003208DF80E0028208DF80F0003A9704859
:1021900005F00CF84FF4E040019000208DF80800A5
:1021A00010208DF8090001208DF80A0001A804F024
:1021B0003FFC28208DF8000001208DF80100002050
:1021C0008DF8020001208DF80300684604F067F8DE
:1021D0001FBD0EB540F2E730ADF804004720ADF862
:1021E00000000020ADF80600ADF80200694659482D
:1021F00005F0F2FD01221146564806F064F901216E
:10220000544806F00BFC0021524806F041F90EBD7F
:1022100010B545F2555005F019FB032005F019FBE8
:102220004FF4C87005F018FB05F019FB10BD08B598
:102230004FF4407004F02EF826208DF800000420A2
:102240008DF8010000208DF8020001208DF80300B8
:10225000684604F024F811208DF8000005208DF860
:10226000010000208DF8020001208DF8030068466F
:1022700004F015F80B208DF8000009208DF80100FE
:1022800000208DF8020001208DF80300684604F05C
:1022900006F83B208DF800000A208DF80100002090
:1022A0008DF8020001208DF80300684603F0F7FF67
:1022B00032208DF8000008208DF8010000208DF8F4
:1022C000020001208DF80300684603F0E8FF362085
:1022D0008DF8000007208DF8010000208DF8020025
:1022E00001208DF80300684603F0D9FF34208DF8F3
:1022F00000000B208DF8010000208DF80200012065
:102300008DF80300684603F0CAFF37208DF80000FF
:1023100006208DF8010000208DF802008DF80300E2
:10232000684603F0BCFF0F208DF8000001208DF8F7
:10233000010000208DF8020001200DE00010014096
:102340000020014000080140003401400014014019
:10235000000C0140001400408DF80300684603F0B3
:102360009EFF0D208DF8000003208DF80100002055
:102370008DF8020001208DF80300684603F08FFFFE
:1023800008BD08B503208DF8020010208DF8030069
:10239000C002ADF800006946FE4804F007FF0320C4
:1023A0008DF8020004208DF80300A020ADF8000095
:1023B0006946F94804F0FAFE0120ADF80000032058
:1023C0008DF8020010208DF803006946F14804F0F2
:1023D000EDFE0121EF4804F098FF0220ADF8000067
:1023E00004208DF803006946EA4804F0DFFE4FF44C
:1023F0000070ADF8000003208DF8020010208DF869
:1024000003006946E44804F0D1FE4FF40071E2484D
:1024100004F079FF4FF48070ADF8000003208DF8D0
:10242000020010208DF803006946DC4804F0BEFE6F
:102430004FF48070D9491031086008BD30B585B0BF
:10244000684605F024FB64220198B0FBF2F1B1F17B
:10245000807F00D31DE021F07F40401E4FF0E0223E
:10246000506150170F22002807DA13071D0ECC4BBE
:1024700000F00F04241F1D5503E013071C0EC94B69
:102480001C5400BF00204FF0E02290610720106133
:1024900000BF05B030BD10B50121084605F064FB52
:1024A0000121042005F060FB0121082005F05CFB00
:1024B0000121102005F058FB0121202005F054FBDC
:1024C0000121402005F050FB0121802005F04CFB4C
:1024D0000121080205F048FB0121C80205F044FB78
:1024E0000121022005F04DFB0121042005F049FBEC
:1024F0000121082005F045FB0121102005F041FBDA
:102500000121480305F030FB0121202005F039FBB3
:102510000121480205F028FB0121C80305F024FB36
:102520000121084605F013FB0121022005F00FFBF5
:102530000121480405F025FB0121C80405F021FB19
:102540000121880305F010FB10BD10B505F09EF9C0
:102550004FF4803005F0BAF905F0F7F90446012C84
:1025600024D1102004F0F8FA022004F0E1FA00204F
:1025700005F031FAA00205F037FA002005F03DFA27
:102580004FF4E011200405F009FA012005F012FAD9
:1025900000BF392005F0BDF90028FAD0022005F06F
:1025A0000CFA00BF05F012FA0828FBD110BD10B5D7
:1025B0000E207D490870FFF7C8FFFFF76CFFFFF79B
:1025C0003DFFFFF7DEFEFFF732FE4FF47A7001F0B9
:1025D000CFFC00F0ADF900F0CFFFFFF719FE00F0DF
:1025E00095FBFFF7F6FDFFF7B2FDFFF785FDFFF75F
:1025F00049FD472140F2E730FFF7F8FC472140F260
:10260000E730FFF7A6FCFFF789FC4FF4614001F0CB
:10261000C1F84FF4614001F058F910BD0EB544F611
:102620001F60ADF804004720ADF800000020ADF8B1
:102630000600ADF8020069465C4805F0CDFB0122BA
:1026400011465A4805F03FFF0121584806F0E6F9C7
:102650000021564805F01CFF0EBD30B589B0054677
:102660000C460121082005F07FFA0121042005F025
:1026700088FA4FF40070ADF8200018208DF8230080
:1026800003208DF8220008A9424804F08FFDA8B26B
:10269000ADF81800A0B2ADF814000020ADF81A0093
:1026A0008DF81C00ADF8160005A9414805F094FB13
:1026B0006020ADF804000120ADF806000020ADF860
:1026C0000A000220ADF80C0001A9394805F09BFC76
:1026D0000821374806F02BF80121354805F0D8FFCE
:1026E0000121334805F0E0FE0121314805F0D0FE1C
:1026F00009B030BD10B52F480078D8B94FF48051DB
:10270000244804F0E6FD68B92B480068022805D883
:1027100029480068401C2849086006E00120254936
:10272000087010BD0020244908600120214908706C
:102730000420F6E71F48007801281AD14103154804
:1027400004F0C7FD68B91D480068022805D81B4879
:102750000068401C1949086006E00220154908700D
:10276000DFE70020154908600220124908700520A3
:10277000D7E710480078022834D14103054804F017
:10278000A8FD38BB0E48006802281ED80C48006817
:10279000401C17E0000C01400020014000080140EF
:1027A00018ED00E000E400E0A70000200010004069
:1027B00000080040B4000020A8000020AC00002069
:1027C000B00000204F49086007E000204E49087023
:1027D0000320A6E700204B49086000204A49087002
:1027E00006209EE700209CE710B54FF40071474893
:1027F00004F06FFD48B90120444948610020444974
:10280000086044490860012010BD01203F4908616B
:102810000020F9E710B54FF480513F4804F059FD0E
:1028200058B93E480078032805DC3C480078401C35
:102830003A49087004E0012010BD002037490870B3
:102840000020F9E710B54FF40061334804F041FD72
:1028500008B1012010BD00203149087000BFF9E720
:1028600010B500242F480078C0F3C00010B1FFF766
:10287000BBFF0446012C0CD12B48007D20F010003A
:102880001030294908750846007D20F004000875BD
:1028900005E02548007D20F01000234908752348F5
:1028A000006800F4E040040A54B11F48807D2043D2
:1028B0001D4988750846007D20F00400087505E074
:1028C0001948807D00F00F001749887512480830BC
:1028D000006800F4006464B11348007D20F0080033
:1028E0000830114908750846007D20F0040008757D
:1028F00005E00D48007D20F008000B490875E0B2A6
:1029000010BD0000B0000020B40000200010014005
:10291000640000206800002000140140B500002081
:10292000B6000020A700002088340020080C0140D9
:1029300000B591B04FF4F060ADF8000000208DF8C4
:10294000030003208DF802006946CA4804F02EFCFB
:102950002020ADF8000000208DF8030003208DF842
:1029600002006946C44804F021FCC4480690C448EB
:102970000790002008900420099000200A908020F1
:102980000B9040000C90C0000D9020200E90000293
:102990000F900020109001220221BA4803F0E9FFB5
:1029A00006A9B84803F0AEFF0021B64803F0D5FFF2
:1029B000B2484C3803F0DCFC0020019001208DF877
:1029C000080000208DF809004FF4602003900020DB
:1029D000049004208DF8140001A9A8484C3803F095
:1029E000EEFC4FF4404005F023F805230122194680
:1029F000A2484C3803F07BFD0523022206219F48A4
:102A00004C3803F074FD0523032207219B484C3802
:102A100003F06DFD05230422082198484C3803F08B
:102A200066FD012195484C3803F000FD01219548D1
:102A300003F093FF012191484C3803F0ECFC8F48E0
:102A40004C3803F00AFD00BF8C484C3803F00AFDF7
:102A50000028F9D189484C3803F00EFD00BF8748A3
:102A60004C3803F00EFD0028F9D1874806908448C1
:102A700010300790002008900120099000200A9053
:102A800080200B9040000C9080000D9020200E9034
:102A900000020F9000201090012202217B4803F0D9
:102AA00068FF06A9794803F02DFF0021774803F05D
:102AB00054FF75484C3803F05BFC002001908DF802
:102AC00008008DF809004FF4602003900020049066
:102AD00001208DF8140001A96B484C3803F06FFCFD
:102AE000052301220F2168484C3803F000FD012125
:102AF00065484C3803F09AFC0121644803F02DFF2F
:102B0000012161484C3803F086FC5F484C3803F0E3
:102B1000A4FC00BF5C484C3803F0A4FC0028F9D1A9
:102B200059484C3803F0A8FC00BF57484C3803F014
:102B3000A8FC0028F9D111B000BD70B503460A46C3
:102B400000200BE000EB8005514E06EBC505514E11
:102B50001C68366845F826401B1D401C0528F1D32B
:102B60004C4C2468641C4B4D2C602C4624680A2570
:102B7000B4FBF5F605FB1644464D2C60002076E0CC
:102B800000EB8004424D55F83440434D45F8204059
:102B900000EB80043E4D55F83440404D45F8204050
:102BA00000EB80043A4D55F834403D4D45F8204047
:102BB00001213AE000EB8004354D05EBC40454F8E4
:102BC0002140354D55F82050AC4209D900EB800426
:102BD0002F4D05EBC40454F821402F4D45F82040FB
:102BE00000EB80042A4D05EBC40454F821402B4D22
:102BF00055F82050AC4209D200EB8004244D05EB7F
:102C0000C40454F82140254D45F8204000EB8004D1
:102C10001F4D05EBC40454F82140214D55F82050B8
:102C20002C441F4D45F82040491C0A29C2D91C4C90
:102C300054F82040184D55F82050641B184D45F8A5
:102C400020402C4654F82040144D55F82050641B69
:102C5000134D45F820402C4654F82040E40845F830
:102C600020402C4654F820401460121D401C0528BA
:102C700086D370BD001C0140001001404C3C014057
:102C8000F8320020580402404C2401400800024061
:102C90000C330020B8000020D4330020E83300209B
:102CA000FC330020FC48807B70470EB544F61F6063
:102CB000ADF804004720ADF800000020ADF8060094
:102CC000ADF802006946F54805F086F80122114684
:102CD000F24805F0F8FB0121F04805F09FFE0021C5
:102CE000EE4805F0D5FB0EBD08B503208DF80200B7
:102CF0000120ADF8000010208DF803006946E84877
:102D000004F054FA0120E649486108BD10B5FFF708
:102D1000EBFFFFF7CAFF10BD00B587B003208DF8A9
:102D20001A00C020ADF8180004208DF81B0006A979
:102D3000DC4804F03BFA06A9DB4804F037FADB482C
:102D400004F076FF4FF6FF70ADF810000020ADF8EC
:102D50000C00ADF81200ADF80E0003A9D34805F041
:102D60003BF800231A460121D04805F044FC684690
:102D700005F071FB0920ADF808006946CB4805F065
:102D8000BEFA47F6FF70C949243108800021C748C0
:102D900005F07EFBC64804F04BFF4FF6FF70ADF820
:102DA00010000020ADF80C00ADF81200ADF80E00D8
:102DB00003A9BF4805F010F800231A460121BC48BA
:102DC00005F019FC684605F046FB0920ADF808003F
:102DD0006946B74805F093FA47F6FF70B4492431C5
:102DE00008800021B24805F053FB07B000BD2DE973
:102DF000F34F8BB0894648460AF0DCFE0746AD4AE1
:102E0000AD4B0AF0ADFC00224FF08043CDE900014C
:102E10000AF0B8FA0022A94BCDE902010AF0B2FA91
:102E200082468B460B980AF0C5FE52465B46CDE9BA
:102E300004010AF0D5FDCDE906010AF0B5F90990C3
:102E400048460AF0B7FE9B4A9B4BCDE900010AF0C9
:102E500087FC074600224FF080430AF093FA82462F
:102E60000022964B0AF08EFACDE904010B980AF085
:102E7000A1FECDE90201DDE904230AF0C7F9CDE99D
:102E800006010AF091F9089009980AF093FE0746A6
:102E90008B4A8C4B0AF076FA82460AF085F9099043
:102EA00008980AF087FE0746854A864B0AF06AFAB8
:102EB00082460AF079F90890002109980BF072F81F
:102EC00004D24021804804F020FA03E040217E48EB
:102ED00004F019FA4FF08B4109980BF097F88246ED
:102EE0000AF068FE21F0004107460AF0A3FB054600
:102EF00025B900204FF0804108870EE0734890FB11
:102F0000F5F004B24FF080418C85204604EBD0717F
:102F1000C1F34F014FF080421187002108980BF058
:102F200041F804D240215E4804F0EDF903E040216D
:102F30005B4804F0EAF94FF08B4108980BF066F813
:102F400082460AF037FE21F0004107460AF072FB84
:102F500006461EB900205E4908800DE05B4890FBE4
:102F6000F6F004B25A490C390C80204604EBD071BB
:102F7000C1F34F01564A11800DB0BDE8F08F2DE925
:102F8000F04105460C4616460027B84651480078E1
:102F9000C0F3C000A0B14FF40071414804F099F9AA
:102FA000A0B94D48007D20F0100010304A49087546
:102FB0000846007D20F0040008750025002405E087
:102FC0004548007D20F01000434908754248007CC8
:102FD00010B94148407C38B13F48007D20F00400E2
:102FE0003D490875002500243B48807C10B93A48CB
:102FF000C07C38B13848007D20F00400364908759F
:103000000025002433480078C0F3400098B13248CE
:10301000807D00F0700040B12F48007D20F004005A
:103020002D4908750025002405E02B48807D00F01F
:103030000F002949887527480078C0F3800098B1AF
:103040002548007D00F0080040B12348007D20F0B5
:103050000400214908750025002405E01E48007D74
:1030600020F008001C490875002128460AF0FEFEE1
:103070003AD1002120460AF0F9FE35D10648C07B3E
:1030800001282BD001200449C873304601F05EFEB0
:103090000025002431E00000C4000020000C0040A6
:1030A00000100140000C01400008014000080040F1
:1030B00000040040CDCCCCCCCC5C754000408F40AF
:1030C0001405FA441EC277400020014040420F0020
:1030D00038340140A700002088340020304601F039
:1030E00035FE0025002408E00121FB4804F0FEF82D
:1030F0000020FA49C8732F46A04641463846FFF7DC
:1031000076FEBDE8F081F8B504460D46164600206F
:1031100000906A460021F248006808F022F9324621
:1031200029462046FFF72BFFED48006808F0CEF94E
:10313000F8BD2DE9F04F99B005460C460027B8467A
:10314000B946BA46BB4600201890179016901590C5
:1031500014901390129028460AF0F8FE0746604239
:103160000AF0F4FE80464FF08B4138460AF0BCFD71
:1031700007464FF07E5138460AF0B6FD07463846FE
:103180000AF018FDD74AD84BCDE90C010AF0E8FA4D
:103190000022D64BCDE90E010AF0E2FACDE910018A
:1031A0000AF002F807464FF08B4140460AF09CFDBA
:1031B00080464FF07E5140460AF096FD80464046DC
:1031C0000AF0F8FCC74AC84BCDE90C010AF0C8FA6E
:1031D0000022C64BCDE90E010AF0C2FACDE910017A
:1031E00009F0E2FF8046414638460AF00FFD4FF0F5
:1031F000804111900AF078FD8146394640460BF037
:1032000003F80D900AF0D6FCB94ABA4BCDE90E018D
:103210000AF0B8F8CDE9100109F0C6FF15900021B9
:1032200015980AF023FE04D1CDF850900020139099
:1032300054E0484615990AF057FD12906942091B5F
:1032400048000AF026FACDE90E01614248190AF059
:1032500020FAA74AA74BCDE90A010AF081FACDE985
:103260000C01DDE90E230AF08DF8CDE9100109F01B
:103270009BFF129015980AF09DFCCDE90A0109F018
:1032800043FFCDE90E0112980AF094FCCDE90C0140
:10329000DDE90E230AF064FACDE9100109F084FF9C
:1032A000149015980AF086FCCDE9080109F0DEFEBD
:1032B0000022914BCDE90A010AF086FBCDE90E010F
:1032C00012980AF077FCCDE90C01DDE90E230AF033
:1032D00047FACDE9100109F067FF13908749384696
:1032E0000AF094FE8246854940460AF08FFE8346E6
:1032F000514658460AF088FF81490C900AF086FE34
:103300000D900AF057FC7A4A7A4BCDE90E010AF08B
:1033100039F8CDE9100109F047FF18905946504699
:103320000AF074FC4FF0804110900AF0DDFC11901F
:103330000AF0D0FD00B2179018980AF0CBFD00B249
:1033400016904FF0804115980AF0CEFC00906D4821
:10335000816800980AF05AFC01900AF02BFCCDE934
:10336000020109F0D1FECDE9060113980AF022FC12
:10337000CDE90401DDE906230AF0F2F9CDE90A01FD
:1033800014980AF017FCCDE906014FF0804115981A
:103390000AF0AAFC00905B48816800980AF036FCAD
:1033A00001900AF007FCCDE9020109F05FFECDE9CA
:1033B0000401DDE906230AF0D3F9CDE90801DDE9CE
:1033C0000A230AF00DFBCDE90E014E4908680AF008
:1033D000F1FBCDE90C01DDE90E2309F017FFCDE982
:1033E000100109F0E1FE474908604FF0804115984F
:1033F0000AF07AFC00904348816800980AF006FCC5
:1034000001900AF0D7FBCDE9020109F02FFECDE9CA
:10341000060113980AF0CEFBCDE90401DDE906238D
:103420000AF09EF9CDE90A0114980AF0C3FBCDE930
:1034300006014FF0804115980AF056FC0090314883
:10344000816800980AF0E2FB01900AF0B3FBCDE935
:10345000020109F059FECDE90401DDE906230AF075
:103460007FF9CDE90801DDE90A2309F0CFFECDE9B6
:103470000E01244948680AF09DFBCDE90C01DDE905
:103480000E2309F0C3FECDE9100109F08DFE1D49A0
:103490004860886815990AF0B9FB1A49886008469F
:1034A00086680DE030460AF085FB0E4A164BCDE9E2
:1034B0000E010AF095FACDE9100109F075FE0646F5
:1034C00030460AF077FB074A074BCDE910010AF0B6
:1034D00045FAE7D328E0000000100140C4000020B6
:1034E000180000206E861BF0F921094000405E4064
:1034F000CDCCCCCCCC5C75400000F03F0000484205
:1035000000007A4410340020F921194030460AF0B6
:1035100051FB144A144BCDE90E0109F077FECDE9B9
:10352000100109F041FE064630460AF043FB0D4A01
:103530000E4BCDE910010AF0D7F8E7D30C488660AE
:103540000C49179888811698C88109480068086056
:1035500007484068486006488068886019B0BDE840
:10356000F08F00006E861BF0F9211940F92109C087
:10357000103400208834002000B591B003208DF86D
:1035800006000420ADF8040018208DF8070001A9FA
:10359000FE4803F00BFE0820ADF8040004208DF86F
:1035A000070001A9F94803F001FE4FF48060ADF86F
:1035B000040018208DF8070001A9F54803F0F6FD76
:1035C0004FF40060ADF8040004208DF8070001A955
:1035D000EF4803F0EBFD4FF48050ADF804001820E5
:1035E0008DF8070001A9EA4803F0E0FD0420ADF8DA
:1035F00004008DF8070001A9E64803F0D7FD4FF459
:10360000E1300D900020ADF83800ADF83A004FF4ED
:103610008060ADF83C000020ADF840000C20ADF813
:103620003E000DA9DC4805F054FA0021DA4805F007
:10363000DCFA4FF4E1300D900020ADF83800ADF821
:103640003A00ADF83C00ADF840000C20ADF83E006B
:103650000DA9D24805F03DFA012240F22441CF489D
:1036600005F0CFFA01228021CC4805F0EFFA0122C3
:103670004021CA4805F0EAFA0121C84805F0B5FA28
:103680004FF4E1300D904FF48050ADF83800002039
:10369000ADF83A004FF48060ADF83C000020ADF882
:1036A00040000C20ADF83E000DA9BD4805F011FA10
:1036B000012240F22441BA4805F0A3FA0122402138
:1036C000B74805F0C3FA0121B54805F08EFAB348B2
:1036D000001D0290B3480390102004901D20059017
:1036E00000200690802007900020089009900A9002
:1036F0004FF400500B9000200C9001220221AA48A8
:1037000003F037F902A9A84803F0FCF80021A64805
:1037100003F023F9A148001D0290A4480390002063
:1037200004900C2005900020069080200790002037
:10373000089009900A904FF440500B9000200C9094
:1037400002A99948143803F0DDF80121964814388D
:1037500003F003F99248001D029095480390002061
:1037600004904020059000200690802007900020C3
:10377000089009900A904FF440500B9000200C9054
:1037800002A98C4803F0BEF801218A4803F0E5F84D
:1037900011B000BD10B590B004464FF4407002F077
:1037A00079FD0121042004F0DFF90121084604F02D
:1037B000CEF90121880304F0D7F94FF40070ADF879
:1037C000000003208DF8020018208DF803006946E0
:1037D0006E4803F0EBFC4FF48060ADF8000004206D
:1037E0008DF803006946694803F0E0FC0C94002062
:1037F000ADF83400ADF83600ADF83800ADF83C0057
:103800000C20ADF83A000CA96B4805F062F90122D2
:103810008021694805F01AFA01224021664805F026
:1038200015FA0121644805F0E0F95F483C3802F0E0
:10383000C7FF6148001D019060480290102003906E
:10384000062004900020059080200690002007901C
:10385000089009904FF480500A9000200B9001A925
:1038600051483C3803F04EF800214F483C3803F0F3
:1038700074F84D48283802F0A3FF4F48001D01900E
:103880004F480290002003902020049000200590D3
:103890008020069000200790089009904FF48050F7
:1038A0000A9000200B90012202213F48283803F0A3
:1038B00060F801A93C48283803F024F800213A4870
:1038C000283803F04AF810B010BD10B590B0044687
:1038D0000121082004F048F90121084604F037F9D5
:1038E0000121880404F04DF94FF48060ADF8000028
:1038F00003208DF8020018208DF803006946314836
:1039000003F054FC4FF40060ADF8000004208DF883
:10391000030069462B4803F049FC0C940020ADF8E5
:103920003400ADF83600ADF83800ADF83C000C209E
:10393000ADF83A000CA9244805F0CBF8012280210B
:10394000214805F083F9012240211F4805F07EF946
:1039500001211D4805F049F91348643802F030FF91
:103960001948001D0190194802901020039006206C
:103970000490002005908020069000200790089079
:1039800009904FF480500A90002021E00008014087
:10399000001001400014014000500040004400406D
:1039A000004C00401C3400208000024039340020CC
:1039B000453400203004024000380140F40000206B
:1039C00088350020000C0140004800402001002004
:1039D0000B9001A9FD4802F095FF0021FB4802F081
:1039E000BCFFFA48143002F0EBFEF9480190F948A8
:1039F0000290002003902020049000200590802059
:103A0000069000200790089009904FF480500A908B
:103A100000200B9001220221EC48143002F0A9FF93
:103A200001A9EA48143002F06DFF0021E748143084
:103A300002F093FF10B010BD10B5044600BF802106
:103A4000E54805F0ADF90028F9D0E0486830046099
:103A50000121001F02F081FF10BD70B505460C4624
:103A60000BE02178284605F02DF900BF802128467B
:103A700005F096F90128F9D1641C20780028F0D1CE
:103A800070BD70B50446002500265520D349087046
:103A9000E0784870A07888706078C87020780871E5
:103AA000E0794871A07988716079C87120790872CD
:103AB000E07A4872A07A8872607AC872207A0873B5
:103AC000A089000A4873207B8873E089000AC873C4
:103AD000A07B0874207C4874607C8874A07C487447
:103AE000E07C8874207DC874A07D0875607E487570
:103AF000207E8875E07DC87500200876207F487696
:103B0000607F887600BF05E0B448405D3044C6B2AF
:103B1000681CC5B21B2DF7DBB048C676AA20AF499A
:103B200008771D20FFF788FF70BD2DE9F04107469B
:103B30000D461646002400BF0CE0295D384605F00E
:103B4000C1F800BF8021384605F02AF90028F9D0D5
:103B5000601C84B2B442F0DB00BF4021384605F05F
:103B60001FF90028F9D0012000F002FABDE8F08129
:103B700038B5002406E069469948006806F083FFDE
:103B800098490860974800680028F4D0002405E0B0
:103B90000020944909680855601CC4B20C2CF7DB5E
:103BA00000209049096808738E490968086138BD8A
:103BB000002100208B4A1268116902E00969421C49
:103BC000D0B20029FAD170472DE9F84380460E465D
:103BD00000200090002400270025FFF7E9FF0A28B5
:103BE0001ADA69467E48006806F04DFF04469CB12B
:103BF000267300BF04E018F805006055681CC5B2C4
:103C0000B542F8DB002020617648076800E03F6994
:103C100038690028FBD13C61BDE8F8832DE9D04F1D
:103C200006460C4617464FF0000AD346A046B94652
:103C300000BF04EB090000EB050B6B4886427AD10C
:103C400001206A49087008464078401C487000BF4F
:103C50008021654805F0A4F80028F9D0802C2ED1E9
:103C60008020634908700020487008460078497831
:103C700008445F49887055481C38806D4FF6FE71C6
:103C8000084052491C3988652020C8650846806D67
:103C900040F0010088650846406C4FF6FE71084010
:103CA0004A491C394864032088640846406C40F047
:103CB000010048644F48006807F008FC2DE04C48BC
:103CC00080F8008080F80190857000784849497834
:103CD00008444749897808444549C8703B481C381E
:103CE000806D4FF6FE71084038491C398865022006
:103CF000C8650846806D40F0010088650846406C44
:103D00004FF6FE71084031491C394864042088642C
:103D10000846406C40F0010048643448407832283E
:103D20000ADB3220314948703348807C20F0800023
:103D300080303149887405E02F48807C20F0800075
:103D40002D4988742248001F86427DD103202B49CB
:103D5000087008464078401C487000BF80211C480D
:103D6000001F05F01DF80028F8D0802C4CD18020D1
:103D700023490870002048700846007849780844B4
:103D80001F49887011481C38006B4FF6FE710840BF
:103D90000E491C390863202048630846006B40F038
:103DA000010008630846C0694FF6FE7108400749E4
:103DB0001C39C861032008620846C06940F0010050
:103DC000C8611048006807F081FB4AE01C0002400F
:103DD00004480040AA350020004400401C34002064
:103DE000EC000020F00000200038014054010020C9
:103DF000F40000203C0000208834002058010020FE
:103E00002001002040000020284880F8008080F831
:103E100001908570007825494978084423498978BC
:103E200008442249C8702248006B4FF6FE710840D2
:103E30001F490863022048630846006B40F00100F8
:103E400008630846C06900E020E04FF6FE710840B4
:103E50001749C861042008620846C06940F00100A3
:103E6000C8611448407832280ADB32201149487072
:103E70001148C07C20F0800080300F49C87405E0F4
:103E80000D48C07C20F080000B49C8740A48407C73
:103E9000C00918B90848007CC00920B10A210748A8
:103EA000006807F08CF8BDE8D08F000020010020EA
:103EB00000000240580100208834002050000020FB
:103EC000FA49088070472DE9F04104460F46FF2566
:103ED000FF264FF0000C13E014F8010B80EA0601F6
:103EE000F348405C80EA0506F248455C0AB102F8F6
:103EF000016B0BB103F8015B0CF1010000F0FF0C4A
:103F0000BC45E9DB45EA0620BDE8F0812DE9F0413A
:103F1000A0B006460D4614464FF00008A01E87B21A
:103F2000402110A808F0C9FC4021684608F0C5FCF3
:103F3000042C19DB2878B04216D1A01E81B210AB38
:103F40006A462846FFF7BFFF781E1DF80010A01E26
:103F5000285C814208D1781E10A9095C601E285C8B
:103F6000814201D14FF00108404620B0BDE8F08108
:103F7000002105E0002200E0521C062AFCDB491C5F
:103F80008142F7D370472DE9F04F95B005460E46B4
:103F900017469846DDF87890002004900290019032
:103FA0000090C54C82460120FFF7E2FF4FF480707D
:103FB000C24908600120FFF7DBFF8DF81450032091
:103FC0008DF8150030128DF81600F0B28DF817003C
:103FD00038128DF81800F8B28DF8190000231A462F
:103FE000062105A8FFF76FFF83464FEA2B208DF8C7
:103FF0001A000BF0FF008DF81B000820019005A9A6
:10400000AF48019AFFF791FD4FF48070AB49091D4D
:1040100008606A461E21AB48006806F002FF00787F
:1040200003909DF8000000283AD121462846039AC3
:10403000FFF76CFF18B32078A84220D1607800F019
:104040007F0003281BD1607800F0800010B1A078B9
:10405000029016E0B8F1000F13D0B9F1000F10D0A4
:10406000B9F800A0A078504501DA94F802A05246B1
:10407000E11C404608F0DCFBA9F800A001E081202B
:1040800002909148007818B900209049087040E0EB
:104090008D48007801283CD100208D49087038E017
:1040A0008948007880B989480078401C87490870A1
:1040B0000846007808281BDB8648007C20F020009A
:1040C00020308449087413E07F48007801280FD11C
:1040D0007F480078401C7E49087008460078082810
:1040E00006DB7C48407C20F0200020307949487471
:1040F000822002907748007CC0F3401020B97548B8
:10410000407CC0F3401020B10A217348006806F0DB
:1041100056FF029815B0BDE8F08F2DE9F04F95B02D
:1041200005460E4617469846DDF878900020049024
:10413000039002900190604C0120FFF719FF4FF4AB
:1041400080705E4908600120FFF712FF8DF814505F
:1041500006208DF8150030128DF81600F0B28DF89B
:10416000170038128DF81800F8B28DF819000023E6
:104170001A46062105A8FFF7A6FE82464FEA2A2026
:104180008DF81A000AF0FF008DF81B00082002903D
:1041900005A94B48029AFFF7C8FC4FF480704749C5
:1041A000091D086001AA32214648006806F039FE60
:1041B00090F800B09DF8040090BB4FF0000A5A46FA
:1041C00021462846FFF7A2FE08B32078A8421ED158
:1041D000607800F07F00062819D1607800F0800038
:1041E00010B1A078039014E0B8F1000F05D0E0788A
:1041F000A17840EA0120A8F80000B9F1000F08D02A
:104200006079217940EA0120A9F8000001E08120CD
:1042100003902D48007820B900202C49087041E017
:1042200007E02948007801283CD10020284908707F
:1042300038E02548007880B924480078401C23499C
:1042400008700846007808281BDB2248007C20F014
:10425000200020301F49087413E01B480078012813
:104260000FD11B480078401C194908700846007897
:10427000082806DB1748407C20F020002030154934
:104280004874822003901348007CC0F3401020B98A
:104290001048407CC0F3401020B10A210E4800684D
:1042A00006F08DFE039815B0BDE8F08F6401002084
:1042B00024E6000824E700084534002010080140E7
:1042C000004C004030000020680100206601002002
:1042D0006701002088340020500000202DE9F04FB5
:1042E00095B00746884691461C46DDF878B0002018
:1042F0000490029001900090FE4D0120FFF738FEDF
:104300004FF48070FC4908600120FFF731FE8DF802
:10431000147010208DF815004FEA28208DF8160033
:1043200008F0FF008DF8170020128DF81800E0B299
:104330008DF819006006000E8DF81A0000260DE0B9
:1043400039F81600000A19F8161040EA012005A9EC
:1043500001EB4601A1F80700701C86B2A642EFDB14
:10436000072000EB440081B200231A4605A8FFF79E
:10437000AAFD82464FEA2A20072101EB440105AA43
:104380005054082101EB440102F801A0092000EB80
:104390004400C0B2019005A9D848019AFFF7C5FBB7
:1043A0004FF48070D449091D08606A461E21D44824
:1043B000006806F036FD007803909DF8000078BB99
:1043C00029463846039AFFF7A1FD00B32878B84282
:1043D0001DD1687800F07F00102818D1687800F0AF
:1043E000800010B1A878029013E0BBF1000F05D057
:1043F000E878A97840EA0120ABF800001F9840B1A6
:104400006879297940EA01211F98018001E0812023
:104410000290BC48007820B90020BB49087041E0F8
:1044200007E0B848007801283CD10020B74908705F
:1044300038E0B448007880B9B3480078401CB249ED
:1044400008700846007808281BDBB148007C20F083
:1044500020002030AE49087413E0AA4800780128F3
:104460000FD1AA480078401CA84908700846007877
:10447000082806DBA648407C20F020002030A44914
:10448000487482200290A248007CC0F3401020B9FA
:104490009F48407CC0F3401020B10A219D4800682D
:1044A00006F08DFD029815B0BDE8F08F2DE9FF4FA5
:1044B00095B005468A461E46229F00200490039030
:1044C000029001908B4C0120FFF752FD4FF4807059
:1044D000894908600120FFF74BFD8DF814502B200F
:1044E0008DF815000E208DF816008DF817A017987E
:1044F0008DF8180000231A46052105A8FFF7E3FCF4
:1045000083464FEA2B208DF819000BF0FF008DF841
:104510001A000720029005A97848029AFFF705FBC8
:104520004FF480707449091D086001AA1E21744867
:10453000006806F076FC90F800809DF804000028E2
:1045400036D1424621462846FFF7E0FCF8B12078F4
:10455000A8421CD1607800F07F002B2817D160782A
:1045600000F0800010B1A078039012E08EB187B106
:10457000B7F80090A8F10700484500DA81464A469E
:10458000611D304608F054F9A7F8009001E0812041
:1045900003905C48007818B900205B49087040E03F
:1045A0005848007801283CD100205849087038E06C
:1045B0005448007880B954480078401C524908702B
:1045C0000846007808281BDB5148007C20F02000BA
:1045D00020304F49087413E04A48007801280FD171
:1045E0004A480078401C4949087008460078082865
:1045F00006DB4748407C20F02000203044494874C6
:10460000822003904248007CC0F3401020B940480B
:10461000407CC0F3401020B10A213E48006806F0FB
:10462000CEFC039819B0BDE8F08FF8B50024002542
:1046300000200446F7E00A2007F0AEFB601CC5B27C
:10464000012D03D100202F49087004E0022D02D172
:1046500001202C490870002003460322B02100905D
:104660002846FFF75AFD0646002003460322B021E4
:1046700000902846FFF751FD0646002003464FF400
:104680007A72632100902846FFF747FD0646002016
:10469000034640F2DC52652100902846FFF73DFDBD
:1046A0000646002003464FF4166266210090284615
:1046B000FFF733FD064600200346024643210090E3
:1046C0002846FFF72AFD06460020034602464421FD
:1046D00000902846FFF721FD0646002003460122F0
:1046E000452100902846FFF718FD064600200346A6
:1046F00012E000004534002010080140004C00404A
:1047000030000020680100206601002067010020C1
:1047100088340020500000204FF47A72522100901B
:104720002846FFF7FAFC06460020034640F2DC521A
:10473000532100902846FFF7F0FC06460020034670
:104740004FF4FA72682100902846FFF7E6FC06460F
:10475000002003464FF4AF626A2100902846FFF71D
:10476000DCFC0646002003464FF4AF626B2100904C
:104770002846FFF7D2FC0646002003464FF4167287
:104780006C2100902846FFF7C8FC0646002003462F
:104790000122702100902846FFF7BFFC064600204A
:1047A00003460246722100902846FFF7B6FC0646F3
:1047B000002003461422732100902846FFF7ADFC29
:1047C0000646002003460A22742100902846FFF77F
:1047D000A4FC0646002003460522952100902846A9
:1047E000FFF79BFC0646002003460522952100901A
:1047F0002846FFF792FC06460020034601224FF4AC
:10480000B07100902846FFF788FC0646002003465A
:1048100001224FF4C07100902846FFF77EFC064647
:10482000601CC0B20446022CFFF605AFF8BD2DE9AE
:10483000F04F91B083468A46002010900F900E9062
:104840000C900D900A900B900890099014200790FE
:1048500000200690022005904FF00009F6480490D1
:104860000024022001904FF47A70FFF781FBF34996
:10487000584609F0CBFB0C908AF00045EF492846DA
:1048800009F0C4FB0D900C9809F024FB00B20390D2
:104890000D9809F01FFB00B20290E948007CC0F3BC
:1048A000401058B90020E74908700090039882B280
:1048B000002343210120FFF730FC044640F2DC5086
:1048C000FFF756FBDE48407CC0F3401060B9012082
:1048D000DC49087000200090029882B20023432136
:1048E0000220FFF71AFC0446D548407CC0F3401074
:1048F00000287CD10120D349087005A806AB01220D
:10490000332100900220FFF73EFB0446002C49D1E2
:104910009DF819009DF8181000EB01201FFA80F98E
:10492000B9F1020F06D0B9F1030F15D0B9F1040F98
:1049300036D123E0C248407C20F00100401CC04931
:1049400048740846007D20F0040008750121BE4827
:10495000006806F034FB24E0B948407C20F00800F1
:104960000830B74948740846007D20F004000875F7
:104970000B21B548006806F022FB12E0B048407CED
:1049800020F010001030AE4948740846007D20F039
:10499000040008750921AC48006806F010FB00E02F
:1049A00000BF00BFA648407CC0F3800000287AD139
:1049B00005A806AB0122352100900220FFF7E3FA9B
:1049C0000446002C6FD19DF819009DF8181000EBDB
:1049D00001209E49086005A806AB01223421009001
:1049E0000220FFF7D0FA0446002C5CD100E05AE028
:1049F0009DF819009DF8181000EB01201FFA80F9AE
:104A000092480068012805D109EB890040008F49D0
:104A1000086002E08D48C0F800908C49096888025F
:104A200008F04EFE05460E46894949683222514338
:104A3000C1EB0111890001EB8101480008F029FE5A
:104A400021F0004107462A46334608F04DFE23D2A6
:104A50007E48006800F5C8707E49096888421BD905
:104A60007D4800780A2805DA7B480078401C7A499E
:104A7000087014E07248407C20F00400001D70496A
:104A800048740846007D20F0040008750C216E482B
:104A9000006806F094FA02E000206F4908706B4845
:104AA00000686C49086040F2DC50FFF761FA644826
:104AB000007CC0F3401000287DD16249087005A831
:104AC00006AB0122332100901046FFF75CFA044642
:104AD000ACBB9DF819009DF8181000EB01201FFADF
:104AE00080F9B9F1020F06D0B9F1030F15D0B9F171
:104AF000040F37D124E05248007C20F00100401C14
:104B00004F4908740846007D20F004000875012113
:104B10004D48006806F053FA25E04948007C20F033
:104B200008000830464908740846007D20F004005B
:104B300008750B214448006806F041FA13E013E0C1
:104B40003F48007C20F0100010303D4908740846B2
:104B5000007D20F00400087509213B48006806F03C
:104B60002EFA00E000BF00BF3548007CC0F3800093
:104B7000002877D105A806AB012235210090104608
:104B8000FFF701FA0446002C6CD19DF819009DF83E
:104B9000181000EB01203149086005A806AB01227E
:104BA000342100901046FFF7EEF90446002C73D133
:104BB0009DF8190000E0C6E09DF8181000EB0120F8
:104BC0001FFA80F925480068012805D109EB890002
:104BD00040002249086002E02048C0F800901F49C8
:104BE0000968880208F06CFD05460E4618490968F8
:104BF00032225143C1EB0111890001EB81014800D0
:104C000008F047FD21F0004107462A46334608F0E8
:104C10006BFD3AD21148006800F5C8700D4909686B
:104C2000884232D90E4800780A281CDA0C480078ED
:104C3000401C0B4908702BE0250649400000164433
:104C400088340020680100205000002070010020FE
:104C5000E4000020780100207D0100206C0100208C
:104C60007C01002018E06748007C20F00400001D53
:104C7000644908740846007D20F0040008750C2182
:104C80006148006806F09BF902E000205F49087067
:104C90005F4800685F4908605A48007CC0F38000A4
:104CA000B0B905A806AB0122212100901046FFF7FC
:104CB0006AF9044664B99DF819009DF8181000EBD4
:104CC0000120534908600846008800B24D49C88356
:104CD0004C48407CC0F38000B0B905A806AB012267
:104CE000212100900220FFF74EF9044664B99DF897
:104CF00019009DF8181000EB01204749086008468C
:104D0000008800B23F4908843E48B0F91E00B0F563
:104D1000FA6F05DC3B48B0F92000B0F5FA6F0BDD07
:104D20003E48007820F008003C49087015213648BC
:104D3000006806F044F906E03848007820F00800E2
:104D400008303649087011B0BDE8F08F7CB50446D4
:104D50000020002100220023314E60CECDE9005614
:104D60007CBD1FB500242E49083103C9CDE90201DD
:104D700000202C4908700090042302AA44210190CD
:104D80000120FFF7ABFA04464FF47A70FFF7F0F812
:104D900001202449087000200090042302AA442125
:104DA00001900220FFF79AFA04461FBD3EB5044663
:104DB00000251B49103103C9CDE901010020194923
:104DC0000870A2B20346402100900120FFF7A5F928
:104DD000054640F2DC50FFF7CBF80120114908707E
:104DE0000020A2B20346402100900220FFF795F96F
:104DF00005463EBD002100BF01E0401E491C814226
:104E0000FBD3704788340020500000207C01002034
:104E10006C0100207401002070010020A700002018
:104E200024E80008680100200146B1F5C87F01DCD4
:104E3000012901DA00207047F848006841F2883300
:104E4000B3FBF0F2184690FBF1F0F44B18601046FB
:104E5000F1E708B50121082002F086FE4FF440601A
:104E6000ADF8000010208DF8030003208DF802003B
:104E70006946EB4802F09AF94FF44061E84802F0C5
:104E800042FA0121C82002F06FFE03208DF80200D3
:104E900010208DF80300ADF800006946E14802F0EB
:104EA00085F903208DF8020010208DF803006A2098
:104EB000ADF800006946DC4802F078F903208DF86F
:104EC000020010208DF803004001ADF80000694693
:104ED000D34802F06BF90120D4490860D449C1F8E5
:104EE000AC014FF4C870FFF79FFF08BDCB490868BD
:104EF000CB49091D096821F47041C94A121D11608E
:104F00001146096841F4405111600121C74A121D40
:104F10001160C74AC2F8A811C049086800BF011E45
:104F2000A0F10100FBD1C14A121D1160BB49086804
:104F300000BF011EA0F10100FBD1BC4A1160704707
:104F4000B6490868B649091D096821F47041B44A98
:104F5000121D11601146096841F440511160002191
:104F6000B24A121D11600121B14AC2F8A811AB4921
:104F7000086800BF011EA0F10100FBD10121AB4A6E
:104F8000121D1160A549086800BF011EA0F10100B3
:104F9000FBD1704710B5A14804680023A048001D4C
:104FA000006820F470409E49091D086008460068AA
:104FB00040F40040086001209C49091D08609C499C
:104FC000C1F8A8019548046800BF201EA4F101049F
:104FD000FBD108E01846591CCBB2FA2803DDFFF7D5
:104FE000AFFF012010BD91487C3800680128F1D046
:104FF00000208E49086000BFF4E788490868002156
:105000008A4A11608649091D096821F47041844A61
:10501000121D11601146096841F4405111600021D0
:10502000834AC2F8AC117D49086800BF011EA0F197
:105030000100FBD101217D4A11607849086800BF59
:10504000011EA0F10100FBD1784A1160704773493D
:1050500008680021754A11607149091D096821F429
:1050600070416F4A121D11601146096841F44051A8
:10507000116001216E4AC2F8AC116849086800BF8E
:10508000011EA0F10100FBD10121684A11606349B2
:10509000086800BF011EA0F10100FBD1634A116046
:1050A000704710B500225D4B19685D4B1B1D1B68D6
:1050B00023F470435A4C241D236023461B6843F499
:1050C000405323600023594C236000BF2CE000F0C4
:1050D000800323B10123554C241D236003E00023EA
:1050E000524C241D23604D4B196800BF0B1EA1F1CB
:1050F0000101FBD101234D4C2360484B196800BFCF
:105100000B1EA1F10101FBD1484C2360434B1B68EE
:105110000324B3FBF4F100BF0B1EA1F10101FBD18D
:105120004306180E531CDAB2082AD0DB10BD70B546
:10513000044600233948066800203C490860384886
:10514000001D006820F470403549091D08600846BC
:10515000006840F40040086000251DE02F48066804
:1051600000BF301EA6F10106FBD101202F490860C7
:105170002A48066800BF301EA6F10106FBD158067A
:10518000030E2A487C38006808B143F00103002070
:1051900026490860681CC5B2082DDFDB14B9FFF78B
:1051A00056FF01E0FFF729FF184670BD70B50646AF
:1051B0000C461546FFF79AFE3046FFF772FFFFF7E1
:1051C000E9FE08B1012070BD2046FFF76AFFFFF736
:1051D000E1FE08B10120F6E72846FFF762FFFFF77E
:1051E000D9FE08B10120EEE7FFF7AAFE0020EAE7AA
:1051F00070B506460C461546FFF778FE3046FFF7B9
:1052000050FFFFF7C7FE08B1012070BD2012FFF765
:1052100048FFFFF7BFFE68B10120F6E780010020DC
:10522000000C0140001C014000180140A8812142EF
:1052300000802142E0B2FFF734FFFFF7ABFE08B178
:105240000120E2E72846FFF72CFFFFF7A3FE08B195
:105250000120DAE7FFF774FE0020D6E778B50646AE
:105260000C461546FFF742FE3046FFF71AFFFFF7E0
:1052700091FE08B1012078BD2012FFF712FFFFF761
:1052800089FE08B10120F6E7E0B2FFF70AFFFFF759
:1052900081FE08B10120EEE728128DF80000E8B287
:1052A0008DF801009DF80000FFF7FBFEFFF772FE8E
:1052B00008B10120DFE79DF80100FFF7F2FEFFF7DC
:1052C00069FE08B10120D6E7FFF73AFE0020D2E7D9
:1052D00078B506460D461446FFF708FE3046FFF740
:1052E000E0FEFFF757FE08B1012078BD2812FFF756
:1052F000D8FEFFF74FFE08B10120F6E7E8B2FFF74E
:10530000D0FEFFF747FE08B10120EEE7200E8DF832
:105310000000200C8DF80100200A8DF80200E0B298
:105320008DF803009DF80000FFF7BBFEFFF732FE8B
:1053300008B10120D9E79DF80100FFF7B2FEFFF7A1
:1053400029FE08B10120D0E79DF80200FFF7A9FE71
:10535000FFF720FE08B10120C7E79DF80300FFF723
:10536000A0FEFFF717FE08B10120BEE7FFF7E8FD3A
:105370000020BAE770B504460D461646FFF7B6FDA5
:105380002046FFF78EFEFFF705FE08B1012070BD35
:105390002846FFF786FEFFF7FDFD08B10120F6E77E
:1053A000FFF7A4FD611CC8B2FFF77BFEFFF7F2FD1B
:1053B00008B10120EBE70020FFF7B9FE3070FFF7DE
:1053C000BFFD0020E3E770B505460C461646FFF723
:1053D0008DFD2846FFF765FEFFF7DCFD08B10120D3
:1053E00070BD2012FFF75DFEFFF7D4FD08B101206C
:1053F000F6E7E0B2FFF755FEFFF7CCFD08B101205C
:10540000EEE7FFF79DFDFFF771FD691CC8B2FFF7DE
:1054100048FEFFF7BFFD08B10120E1E70020FFF7DC
:1054200086FE3070FFF78CFD0020D9E72DE9F041B2
:1054300007460D46164698460024FFF757FD3846A6
:10544000FFF72FFEFFF7A6FD10B10120BDE8F081A8
:105450002812FFF726FEFFF79DFD08B10120F5E7B2
:10546000E8B2FFF71EFEFFF795FD08B10120EDE75A
:10547000FFF766FDFFF73AFD791CC8B2FFF711FE92
:10548000FFF788FD08B10120E0E7002404E00020D8
:10549000FFF74DFE3055641CA8F10100A042F6D87C
:1054A0000020FFF744FE3055FFF74AFD0020CDE70E
:1054B0002DE9F8410746884614461D46022600207D
:1054C00000906A4641463846FFF754FF064616B13B
:1054D0003046BDE8F8810120A0409DF800108143CE
:1054E000009105FA04F09DF800100843C0B2009046
:1054F0009DF8002041463846FFF758FE06463046E4
:10550000E7E7000010B50446012240F207212046DB
:10551000FFF76EFE01224FF402712046FFF768FE8E
:10552000002296212046FFF763FE54229721204651
:10553000FFF75EFE0022E3212046FFF759FE04221A
:10554000E4212046FFF754FE0222E5212046FFF722
:105550004FFE0122E6212046FFF74AFE0322E72103
:105560002046FFF745FE0222F5212046FFF740FEC8
:105570000522D9212046FFF73BFEC44ADA21204606
:10558000FFF7A6FE00229F212046FFF731FE2822CA
:10559000A3212046FFF72CFE0022B7212046FFF76B
:1055A00027FE2822BB212046FFF722FE0922B22136
:1055B0002046FFF71DFE0922CA212046FFF718FEEC
:1055C00001224FF4CC712046FFF712FE17224FF450
:1055D000D8712046FFF70CFE002240F2AD112046A4
:1055E000FFF706FE0522FF212046FFF701FE0522F8
:1055F0004FF480712046FFF7FBFD052240F2991120
:105600002046FFF7F5FD1B224FF4D3712046FFF72C
:10561000EFFD3E224FF4D6712046FFF7E9FD1F2231
:1056200040F2A7112046FFF7E3FD0022302120467B
:10563000FFF7DEFD102211212046FFF7D9FD3022B1
:105640004FF485712046FFF7D3FD46223F212046C7
:10565000FFF7CEFDFF2231212046FFF7C9FD63226F
:1056600040212046FFF7C4FD01222E212046FFF7EE
:10567000BFFDFF222C212046FFF7BAFD09221B2186
:105680002046FFF7B5FD31223E212046FFF7B0FD51
:10569000242214212046FFF7ABFD32221C21204694
:1056A000FFF7A6FD602222212046FFF7D7FDFD224D
:1056B00096212046FFF7D2FD082224212046FFF73D
:1056C00097FD002216212046FFF792FD46223F213A
:1056D0002046FFF78DFDC82219212046FFF788FDDF
:1056E0000A221A212046FFF783FD6322402120462B
:1056F000FFF7B4FD14223E212046FFF779FD40223A
:105700003F212046FFF774FD00223C212046FFF791
:105710006FFDFF223A212046FFF76AFD072215217F
:105720002046FFF765FD3C224FF4D6712046FFF777
:105730005FFD0522F2212046FFF75AFD10BD2DE93D
:10574000FC4705464FF0FF3700200190009080464F
:10575000002441F699196A4600212846FFF733FED6
:1057600006469DF80000B42845D10122152128469F
:10577000FFF73EFD01AA4D212846FFF724FE012038
:1057800006F00AFB9DF8040018B9FE242046BDE887
:10579000FC87012218212846FFF72AFD042006F085
:1057A000FBFA6A4600212846FFF70DFE06469DF8E3
:1057B0000000B4281DD101AA4F212846FFF703FE9F
:1057C0009DF80400042812D16A4662212846FFF79A
:1057D000FAFD9DF80000FF2807D09DF800809DF895
:1057E00000402B480078044406E0FF2404E0FE2437
:1057F00002E0FE2400E0FE24E0B2C8E710B510206D
:1058000024490860402024490860202008600120C5
:1058100006F0C2FA2A2240F212215220FFF7E8FCD9
:10582000022006F0B9FA40201B49091F0860012038
:1058300006F0B2FA282240F212215220FFF7D8FCDB
:10584000022006F0A9FA20201349091F0860012050
:1058500006F0A2FA272240F212215220FFF7C8FCDC
:10586000022006F099FA5420FFF74CFE022006F0C1
:1058700093FA5020FFF746FE022006F08DFA4E20E4
:10588000FFF740FE022006F087FA10BDF703CF00B5
:1058900084010020101C01401418014000B585B09F
:1058A00003208DF802001C208DF803004FF44060A7
:1058B000ADF800006946F74801F078FC03208DF848
:1058C000020010208DF80300ADF800006946F24890
:1058D00001F06CFC03208DF8020010208DF803000D
:1058E0006A20ADF800006946EC4801F05FFC032037
:1058F0008DF8020010208DF803004001ADF8000083
:105900006946E44801F052FC0020ADF808004BF66F
:10591000FF70ADF80A004FF48060ADF80E00000192
:10592000ADF81000DE4801900121DE4801F023FEB1
:1059300001A9DC4801F0A1FD05B000BD2DE9F04151
:1059400006460D4617460024A0464FF4204400BFEB
:105950000121D44801F033FE1421D24801F08EFE1B
:1059600000223146CF4801F080FE201EA4F1010440
:1059700002D10120BDE8F0811421CA4801F07EFE69
:1059800000F002000028E3D0C749C64801F037FF05
:105990000121C44801F01FFE4FF4204405E0201E01
:1059A000A4F1010401D10120E4E74FF40031BD4826
:1059B00001F008FF0028F2D10121BA4801F0FFFDF3
:1059C0004FF4805405E0201EA4F1010401D1012010
:1059D000D0E7B649B34801F0D3FE0028F3D0002247
:1059E0003146B04801F041FE4FF4204405E0201E4E
:1059F000A4F1010401D10120BCE7AD49A94801F09F
:105A0000BFFE0028F3D04FEA15284146A54801F013
:105A100026FE4FF4805405E0201EA4F1010401D1BC
:105A20000120A7E7A3499F4801F0CCFE0028F3D04E
:105A300005F0FF0841469B4801F011FE4FF48054E9
:105A400005E0201EA4F1010401D1012092E799494B
:105A50007C39944801F0B6FE0028F2D0012191482B
:105A600001F0ADFD4FF4805405E0201EA4F10104C7
:105A700001D101207EE78D498A4801F081FE00288E
:105A8000F3D001223146874801F0EFFD4FF48054F6
:105A900005E0201EA4F1010401D101206AE7854937
:105AA0007E39804801F08EFE0028F2D014217D4816
:105AB00001F0E4FD18217B4801F0E0FD0021794868
:105AC00001F095FD0121774801F085FD4FF48054E8
:105AD00005E0201EA4F1010401D102204AE7754926
