:020000040800F2
:1000000030040020B1460008194500081B450008CF
:100010001D4500081F45000821450008000000009C
:100020000000000000000000000000002345000860
:100030002545000800000000274500082945000864
:10004000CD460008D1460008D5460008D94600082C
:10005000DD460008E1460008E5460008E9460008DC
:10006000ED460008F1460008F5460008F94600088C
:100070003745000833450008FD46000801470008E1
:1000800041450008494500080547000809470008A0
:100090000D47000811470008154700082D450008C6
:1000A000194700081D470008214700082547000898
:1000B000294700082D470008314700083547000848
:1000C000394700083D4700084147000845470008F8
:1000D000494700084D470008514500083B450008C6
:1000E0005147000855470008594700082DE9F04FCF
:1000F000A1B08246002016461D4602910B900DF1DC
:1001000044086FF000490AE016F8011B0298D04736
:100110000028029000F0B5820B98401C0B903078BC
:10012000010001D10B98AEE22528EDD10020059009
:1001300006900790089009900A9001E040F00100B5
:1001400016F8011F2029F9D023290DD02B2904D01E
:100150002D2906D030290AD00CE040F0020080B2F0
:10016000EEE740F00400FAE740F00800F7E740F05F
:100170001000F4E72A290ED12968296051F8042BD0
:100180002960002A0D9204D5514240F004000D91DF
:1001900080B2761C11E000210D9109E00D994945CE
:1001A00005D001EB810302EB430130390D91761C40
:1001B0003278A2F130010A29F0D331782E2903D008
:1001C0004FF0FF310C911DE016F8011F2A2907D1CD
:1001D00029682960761C51F8042B29600C9211E0E3
:1001E00000210C9109E00C99494505D001EB8103F0
:1001F00002EB430130390C91761C3278A2F13001C8
:100200000A29F0D3ADF838000FF69040317800F0AD
:1002100053FE08B116F8010B8DF83A009DF83A002C
:10022000682802BF31786829622005D06C2804BF95
:1002300030786C2803D171208DF83A00761C11A813
:10024000049016F8017BB7F125002AD01C3800F085
:10025000CA80001F022840F2C680133800F0EB80ED
:10026000093800F0C080801E00F05681401E00F06A
:100270002C81401E022840F2B680001F00F025812C
:10028000401F00F08180401E00F0D580401E24D029
:10029000C01E0BD0801E00F0CE80C01E00F0CB80B0
:1002A00044E125208DF84400012049E128682860B8
:1002B00050F8044B286003940C9F002F04D520466F
:1002C00000F006FE074606E03A460021204600F010
:1002D0001BFE00B1071B069733E129682960002245
:1002E00051F8040B29600021CDE9000111A8039009
:1002F000DDE900019142049F08BF90424FF03C0CA1
:1003000001D10C9AC2B100F00F033033DBB23A2BAB
:10031000A8BF2733ACF101020009BB54944640EA60
:10032000017009090022914208BF904204D0039A4B
:1003300007EB0C039A42E6D307EB0C000390CCF1D9
:100340003C010C980691814209DA401A08904FF658
:10035000EF71BDF838000840ADF83800F1E0002832
:1003600040F1EF809DF8380000F01400102840F0B4
:10037000E8800D98059A801A089A801A401A012878
:10038000C0F2DF800890DCE09DF83A0062281AD0C5
:10039000682806D06A280CD06C281CD0712808D098
:1003A00019E02868286050F8041B28600B98088022
:1003B000C7E02868286050F8042B28600B98C11704
:1003C000C2E90001BDE02868286050F8041B2860DD
:1003D0000B980870B5E02868286050F8041B286066
:1003E0000B980860ADE02868C01D20F007022A6065
:1003F000D2E9000108322A60CDE90001002902D5C6
:1004000005982D210AE0BDF83800810702D505982E
:100410002B2103E0C00705D50598202108F800101E
:10042000401C059011A80599084403903946684678
:1004300000F0E8F985E09DF83A006C280DD07128AD
:1004400018BF6A2809D12868C01D20F007022A6059
:10045000D2E9000108322A6005E02968296051F8D4
:10046000040B29600021CDE900019DF83A006828BD
:1004700003D1DDE9000180B20BE0622803D1DDE9A0
:100480000001C0B205E0742818BF7A2804D1DDE964
:1004900000010021CDE900019DF83800000732D5A8
:1004A000DDE900230020834208BF82422BD047F0C1
:1004B0002000782827D10598302108F80010401C2A
:1004C000411C059108F800701DE09DF83A0029468E
:1004D00000F0DCF8CDE90001DDE9002300218B42CA
:1004E00002DA05982D210AE0BDF83800810702D50F
:1004F00005982B2103E0C00705D50598202108F8B1
:100500000010401C059011A8059908440390394635
:10051000684600F0F2F814E0012005902868286091
:1005200050F8041B28608DF844100AE025208DF84F
:10053000440001200590380003D088F801700220A3
:1005400005900D980599401A0899401A0699401A85
:100550000999401A0799401A0A99471A9DF83800D4
:10056000400710D42020012F8DF840000BDB3C46C3
:10057000012310AA6946504600F079FC002840F09B
:100580008080641EF4D1DDF814B0BBF1000F11AC13
:100590000CD014F8011B0298D0470028029070D0AC
:1005A0000B98401CBBF1010B0B90F2D130208DF861
:1005B0004000089C012C09DB012310AA6946504623
:1005C00000F055FC00285CD1641EF5D1DDF818B0B0
:1005D000039CBBF1000F0CD014F8011B0298D0470C
:1005E000002802904DD00B98401CBBF1010B0B90E2
:1005F000F2D130208DF84000099C012C09DB012349
:1006000010AA6946504600F032FC002839D1641E19
:10061000F5D103980699DDF81CB04418BBF1000F22
:100620000BD014F8011B0298D047029048B30B98E6
:10063000401CBBF1010B0B90F3D130208DF8400032
:100640000A9C012C08DB012310AA6946504600F0E1
:100650000EFCB0B9641EF6D19DF8380040077FF556
:100660005EAD2020012F8DF84000FFF658AD01232C
:1006700010AA6946504600F0FAFB10B97F1EF6D169
:100680004DE54FF0FF3021B0BDE8F08F622826D055
:1006900068281DD06A2808D06C2827D0712804D07B
:1006A000742823D07A280CD020E00868C01D20F0E0
:1006B00007000860D0E9002308300860194610469A
:1006C00070470A680A6052F8040B0A6000217047FC
:1006D0000A680A6052F8040B0A6000B20BE00A686C
:1006E0000A6052F8040B0A6040B204E00A680A602B
:1006F00052F8040B0A60C11770472DE9F343054611
:1007000008462F696F2808BF082405D041F0200152
:10071000782914BF0A2410243C26D5E90023642834
:1007200018BF69289046994606D100218B4203DA0A
:10073000D8F1000869EB49090020814508BF8045D0
:100740000CD1286B50B9082C38D195F83800000727
:1007500034D530203B2687F83B002FE0701E0090F8
:100760000646404649462246E31700F0F9FB02F1EF
:100770003000C0B23A2803DB9DF804105139081844
:10078000B855494640462246E31700F0E9FB80464B
:1007900089460020814508BF804503D0E868B91923
:1007A0008842DBD3082C09D195F83800000705D51D
:1007B000B85D302802D0761E3020B855B919E960EE
:1007C000C6F13C00296BA861884208DA081A286241
:1007D0004FF6EF71288F08402887BDE8F383002982
:1007E0000ED595F8381001F01401102908D1696B65
:1007F0006A69891A2A6A891A0E1A012EA8BF2E62FE
:10080000BDE8F3832DE9F24F04468EB0D4E9000130
:10081000CDE9020104AF9DF8380040F0200BBBF198
:10082000610F0AD0206B002848BF062004D408BFFF
:10083000BBF1670F01D1012020636168C1F30A5049
:1008400040F2FF7290421CD1080304BF20680028C8
:1008500009D10320A0619DF8380061381A2835D3EA
:100860000FF24C6108E00320A0619DF83800613868
:100870001A2828D30FF23061E068032200F0E8FB69
:10088000BDE1012815DA204600F01DFC012810DB2F
:1008900000250020BBF1610F1FD1E16830220A70F2
:1008A0008A1CE2609DF83820612A0CBF7822582209
:1008B0000FE0626840F2FE3161F31E52451A626039
:1008C0004FF0FF30E6E70FF2DC51D5E70FF2DC51D5
:1008D000D2E74A706169891C616110B90026002560
:1008E00084E1BBF1610F40F09880206BD4E900AB4C
:1008F00000284CBF2126461CDDE90201002200230E
:1009000000F004FC36B23ABF8BF00040CDE902A003
:10091000CDE902AB06F101082D1FB8F1010F8DF8EA
:1009200010200DF1110736DBDDE902010022002362
:1009300000F004FC2FD21C2102A800F017FCDDE916
:10094000020100F099FCA8F10708B8F1010F8146F7
:1009500009DB00F0BDFC02460B46DDE9020100F0B8
:10096000CFFCCDE90201F81D072105E009F00F02D7
:1009700000F8012D4FEA2919B9F1010F01DB491ED9
:10098000F4D5491E5CBF002200F8012DF9D5C71D22
:10099000B8F1010FC8DA0DF11100391AB142B8BF30
:1009A0000E4636B230000DF111072FD4884206DA18
:1009B00004A9014449780829A8BF0F2100DA0021C1
:1009C00004AA024400E0761E12F80139401E8B4250
:1009D000F9D00F2904D104A901444A78521C4A7065
:1009E000002802D504AF761C2D1D36B2701E0DD422
:1009F00039180A783032D2B23A2A03DB9DF83830FF
:100A00003A3B9A18401E01F80129F2D5206B0028C4
:100A100040F1EC80701E2063E8E0DDE90201002275
:100A2000002300F073FB3CBF81F00041CDE90201DF
:100A30002DB247F2975068434B49DFF8309190FB55
:100A4000F1F52DB2C5F1070ABAF1010F90461CDB92
:100A5000DDE902675FEACA7007D542464B46304679
:100A6000394600F00DFD06460F46404649464246CF
:100A70004B464FEA6A0A00F003FDBAF1000F8046C8
:100A80008946E7D1CDE9026724E0CAF1000A0026D1
:100A9000374F14E05FEACA7007D542464B463046EE
:100AA000394600F0EDFC06460F46404649464246B0
:100AB0004B4600F0E5FC4FEA6A0A80468946BAF1E7
:100AC000000FE7D1DDE9020132463B4600F0AAFD06
:100AD000CDE90201BBF1660F216BDFF898900CBFE6
:100AE00005F10A0006204618142EA8BF1326302050
:100AF0008DF810000DF11107012E3DDBDDE902013B
:100B000000F0D0FB07F1080104220A23B0FBF3F345
:100B100003EB8307A0EB4700303001F8010C0A20FB
:100B2000B3FBF0F000EB8007A3EB47033033521E1A
:100B300001F8023DE9D1083E012E01F10807DBDB97
:100B4000DDE9020100F0AEFB00F0CCFB02460B46F3
:100B5000DDE9020100F0D4FB00224B4600F090FCDE
:100B6000CDE90201CAE700BFA086010000002440D1
:100B70000000F03F84D797410DF11100381A0DF1B4
:100B8000110702E0401E6D1E7F1C39783029F9D014
:100B9000BBF1660F08BF691C04D0BBF1650F0CBF29
:100BA00001210021226B8E1836B2B042B8BF064632
:100BB00036B231001AD4814204DA785C3528A8BFF5
:100BC000392000DA30207A18521E00E0761E12F822
:100BD0000139491E8342F9D0392802D1785C401C82
:100BE0007854002902D57F1E761C6D1C2DB29DF80D
:100BF0003810009533B23A46204600F003F80FB0A3
:100C0000BDE8F08F2DE9F043054685B01F46D5F8C5
:100C10003080012F8946164602DA01270FF294260A
:100C200049F02000BDF93040662808BF641C17D089
:100C3000672840F0848014F1040FC0F28680444598
:100C400080F2838095F83800641C000702D4474581
:100C5000B8BFB84624B2B8EB040848BF4FF000084C
:100C600024B2E868A969012C27DA4A1C30234354CE
:100C7000B8F1010F03DA95F83800000703D5E968E9
:100C80002E208854521C18EB040FB8BFC8F1000482
:100C900024B260426862A044B845AA61B8BF474622
:100CA000E868AB693FB2EF613A463146184400F05C
:100CB000CFF9A8EB0700A862C2E022469742084499
:100CC00018DA3A46314600F0C3F9A9697918E01BF1
:100CD000B8F1010FA961686203DA95F838000007DE
:100CE00005D5EA682E205054E869401CE861C5F833
:100CF0002880A5E0314600F0ABF9A86920183F1B19
:100D0000B8F1010F03DA95F83810090703D5EA683E
:100D10002E211154401CA8613FB2B845B8BF4746C8
:100D2000E868AB693FB23A463119184400F090F9CF
:100D3000A8693818A861A8EB0700686280E0B9F1DB
:100D4000610F16D14FF0700918E0474504DA95F8A5
:100D50003810090758BFB846B8F1010848BF4FF02E
:100D60000008B9F1670F14BF4FF045094FF065094E
:100D700004E0B9F1410F08BF4FF05009A969EB68D1
:100D8000481CA861B8F1010F16F8012B5A5403DA78
:100D900095F83810090719D5EA68431CAB612E2174
:100DA0001154B8F1010F11DB7F1E3FB2B845B8BF37
:100DB0004746E8683FB23A463146184400F048F9E1
:100DC000A8693818A861A8EB07006862E868A969F3
:100DD0000144200081F8009003D42B2048708E1C21
:100DE00003E02D224A708E1C644200270DF1080892
:100DF00008E00A22684600F040FD019808F8010B5F
:100E00007F1C009C21B20129F3DA022F06DA49F097
:100E10002000652804BF302006F8010B4FB93020B0
:100E200006F8010B07E07F1E02A8C05D303006F80F
:100E3000010B012FF7DAE868A9690844301AE86164
:100E400095F8380000F0140010280DD16869A969E0
:100E50000818696A0818E9690818A96A0818696B06
:100E60008842BCBF081A286205B0BDE8F083F8B517
:100E700004460D4616461F46002077B116F8011BA2
:100E8000A868A047A86030B1E86A401CE86200206A
:100E90007F1EF3D1F2BD4FF0FF30F2BD686A6C7473
:100EA0007A4C00006E616E004E414E00696E660025
:100EB000494E4600300000000278C9B28A421AB199
:100EC0001CBF10F8012FF9E718BF00207047000081
:100ED00000F10103810704D010F8011B89B18107DB
:100EE000FAD10268B2F10131914311F0803F04BFA1
:100EF00050F8042FF6E710F8011B11B110F8011B90
:100F0000FBE7C01A70470000C9B2830706D0521E23
:100F100022D310F8013B9942F7D11FE0083A13D3CE
:100F200002F1040241EA012141EA014150F8043B87
:100F3000121F21BF4B40A3F1013C2CEA030C1CF013
:100F4000803FF3D0C9B2001F083210F8013B521E97
:100F500028BF91EA030FF8D818BF0120401E704740
:100F60001B4213D1094236D12AB18446B0FBF2F0BC
:100F700002FB10C2704700F087BCFCD300220023A4
:100F800070470B000200002100207047904271EB77
:100F9000030CF6D370B5B1FA81F4B3FA83F52C1BC8
:100FA000A340C4F1200532FA05F63343A2405FF0B6
:100FB0000046E64002E05B085FEA3202841A71EB09
:100FC000030524BF204629467641F4D302000B00D6
:100FD0003000002170BD012ACFD970B5140C20D08B
:100FE000B1FA81F4B2FA82F5C4F120046419B4F1C3
:100FF0002006D6D3B2405FF00044F440002502E062
:1010000052085FEA3303C61A71EB020E24BF304662
:10101000714664416D41F3D302000B0020002900AA
:1010200070BD0C46B1FBF2F102FB11452D0445EAFF
:101030001045B5FBF2F402FB145580B240EA0545B9
:10104000B5FBF2F002FB105240EA044070BD000014
:1010500062B38B0708D0521E11F8013B00F8013B28
:1010600000F024808B07F6D1830740F0208000BF7A
:10107000103A07D330B4B1E83810103AA0E838106D
:10108000F9D230BC530724BFB1E80810A0E808101B
:1010900044BF51F8043B40F8043BD20724BF31F869
:1010A000022B20F8022B44BF0B7803707047083ADC
:1010B00007D3B1E80810083A40F8043B40F804CBE5
:1010C000F7D25307E4E730B4436803F0004201214C
:1010D000C3F313034360002B04BF0368002B08D144
:1010E0000DE00368DD0F45EA440444605B000360E3
:1010F000491E4468E302F4D5C4F313034360436814
:101100001A434260084630BC704700004FF4001C90
:101110001CEB410F94BF1CEB430F09E041EA030CA9
:1011200050EA4C0C52EA0C0C03D2994208BF904290
:10113000704714BF8B428242704700004FF4001C7E
:101140001CEB410F94BF1CEB430F09E041EA030C79
:1011500050EA4C0C52EA0C0C03D28B4208BF82427C
:10116000704714BF994290427047000070B5044622
:101170000D466068C0F30A5040F2FF71884207D103
:101180006068000304BF2068002817D0022070BDEB
:1011900020B92046FFF797FF012866DA012D0FDB03
:1011A00040F2FF71091A8D420AD36068002847BFD8
:1011B00000202F4900202F49C4E90001012070BD03
:1011C0004142A942616806DA6FF31E51401941EAB3
:1011D0000050606040E0401E63684519012205F13F
:1011E000350062F31F53352801F00041636003D3DB
:1011F00061600020206070BD002015F11F0F04DA2F
:10120000206823600022203562606A4212D0401EAE
:1012100025688041C2F12003C0439D4045EAD0705B
:1012200025686668D54006FA03F32B43236063689C
:10123000D340636062680A43B0F1004F626003D834
:101240000DD12078C0070AD52068401C2060206896
:1012500028B96068401C60604FF0FF3070BD606866
:10126000884204BF20680028F6D1002070BD00BF6E
:101270000000F0FF0000F07FF446400D40EAC1207E
:10128000490006D200F014F8004248BF6FF0004059
:10129000604700F00DF84FF0004188428CBF0846CF
:1012A00040426047400D40EAC120490080F00D8077
:1012B00040F00040490DA1F58061491C05D4D1F1F1
:1012C0001F0154BFC840C01770474FF0000070475F
:1012D000010040F10980F446404200F005F851F069
:1012E00000416047010000BF09D0B0FA80F188409A
:1012F000C91CC1F58461090501EBD0214005704787
:10130000F0B44FF0004591EA030F44BF6B4000F08A
:10131000BDBA00BF841A71EB030604D26E40001BF5
:10132000B141121973414FF4001C1CEB410F34BF43
:101330007CEB430684E00C0DA4EB1356362E7DDCCB
:10134000012E43DC45EAC32343EA525312BFD202C3
:1013500092025B08240545EAC12141EA5051D2EBD3
:10136000C020994125D407D1B0FA80F610FA06F1D1
:1013700064D00020203608E0B1FA81F6B140C6F111
:10138000200220FA02F21143B0404FEAF474B4EBA9
:10139000465434F001064FEA74040AD8D6F5001614
:1013A000760D04F00044F04061FA06F25040F1403E
:1013B0004840C00A40EA415021F0004128BF5FEA9E
:1013C000500550F1000044EBD12137E045EAC3233A
:1013D000DB0A45EAC121C90AB6F120050EDD42EA61
:1013E0000242120CC5F1200603FA06F6EB4042EA6F
:1013F00006056D42984161F100010DE062FA06F5C3
:10140000F240554063FA06FC82EA0C02F3405A406F
:101410006D42904161EB030111F4801F05D1641E00
:10142000620502D06D004041494121F4801143081A
:1014300075F1004350F1000041EB0451F0BC7047DE
:101440001CEB410F15D223F0004352EA43060BD0A8
:101450004FEA4C0CBCEB410F04D80C0D661E342E29
:10146000B7DDEBE7801A994150EA410608BF002139
:10147000E4E708BF1CEB430F28BF6FF00001DDE776
:10148000B0B581EA030C0CF0004C40F2FF7515EA90
:1014900011541DBF15EA1357AC42AF4239E0E419AD
:1014A00023EA455343F48013C90241F0004141EA65
:1014B000505EC7021100A7FB020200284FF0000097
:1014C000EEFB01204FF00001E3FB072118BF42F0C3
:1014D0000102401800214941E3FB0E01A4F580649C
:1014E0000F0302D252004041494154F101046CDD26
:1014F000470872F1004250F1000051EB0451A1F590
:1015000080115CBF41EA0C01B0BD4CEA05510020DE
:10151000B0BD05EA1357AC4214BFAF4241E050EAF8
:10152000410E1CBF52EA430E02E061460020B0BDEE
:1015300024423C441BD15FEA070EF6D0090302BFE8
:1015400001460020AEF1140EB1FA81F7AEEB0704AC
:1015500001FA07FE0C37C7F1200100FA07F7C8406F
:101560004EEA000E23EA455343F48013A2E733F01A
:101570000043B3FA83F704BFB2FA82FE77440B3F0D
:10158000E41BB7F1200E2FBF02FA0EF3BB40C7F1E8
:10159000200E22FA0EFE38BF43EA0E03BA40641C46
:1015A00082E750EA410E14BF52EA430E6FF0000189
:1015B0004FF4001717EB430F8ABF194617EB410F83
:1015C000B5E74CEA05510020B0BDD4F10104B4F1F7
:1015D00020070FDAC4F12007520828BF42F00102A9
:1015E00010FA07F501FA07F7E1BF2A43E040384354
:1015F000E1400FE0352C98DCC7F1200452EA4002AC
:1016000020FA07F218BF42F0010231FA07F0A140B8
:101610000A43002172F1004250F1000051EB0C012D
:10162000B0BD00002DE9F04140F2FF7581EA030CE6
:101630000CF0004C15EA11541DBF15EA1357AC42CB
:10164000AF42E9E0BC41C1F31301C3F31303801AB5
:10165000994143F4801304D2641E4000494180182C
:101660005941C90241EA5051B1FBF3F603FB16118F
:10167000A2FB0675D7EBC020A94102D2761E8018C6
:101680005941C90241EA5051B1FBF3FE03FB1E115F
:10169000A2FB0E75D7EBC020A94103D2AEF1010E1B
:1016A00080185941890241EA9051760546EA8E2E0A
:1016B000B1FBF3F603FB1611A2FB0675D7EB8020F6
:1016C000A94102D2761E80185941C90241EA5051FF
:1016D0004EEA060EB1FBF3F603FB1611A2FB0675EC
:1016E000D7EBC020A94102D2761E80185941C90209
:1016F00041EA5051B1FBF3F703FB1711A2FB073589
:10170000D3EBC020A94167F100070CBF004247F0AE
:10171000010766F3D5274FEA1E31B80814F5806437
:1017200014DDBD0775F1004250EB0E5051EB045132
:1017300011F5801F5CBF41EA0C01BDE8F0814CF05F
:101740007F6141F0E0410020BDE8F081BD076D08F8
:1017500040EA0E5041F48011D4F10104B4F12006A6
:101760000ADAC4F120060200E04001FA06F3E14083
:101770001843B24015430EE0342C14DCC6F12004AB
:1017800045EA40056D0820FA06F2154321FA06F0F5
:10179000A1400D43002175F1004250F1000051EBD2
:1017A0000C01BDE8F08100205FEA0C01BDE8F0818A
:1017B000CFB992185B41B3FA83F704BFB2FA82F64D
:1017C000BF190B3FB7F120062FBF02FA06F3BB404B
:1017D000C7F1200622FA06F638BF3343BA401CB1DF
:1017E000E419641E2FE77F4231F00041B1FA81F421
:1017F00004BFB0FA80F6A4190B3CB4F120062FBF49
:1018000000FA06F1A140C4F1200620FA06F638BF1E
:101810003143A0403C1B16E7AC421ABF05EA135700
:10182000AF4214E050EA41061CBF52EA4306BFE74C
:1018300050EA4107304661461CBF41EA0551BDE808
:10184000F08152EA430C08BFC143BDE8F08100209B
:101850004FF4001616EB410F98BF16EB430F08BF6D
:1018600016EB410F24BFC14305E016EB430F0CBF3D
:1018700061464CEA0551BDE8F08191FBF2F303FBB0
:101880001211C0E90031704770470000841A71EBF3
:10189000030603D2001BB141121973414FF4001C1F
:1018A0001CEB410F34BF7CEB430443E00C0DA4EB75
:1018B0001356352E50DC45EAC323DB0A45EAC12125
:1018C000C912B6F120050DDD63FA05F6EB4086EA94
:1018D0000305124218BF45F00105C01851F100017F
:1018E0000CD213E062FA06F5F2405540F3415A403B
:1018F000B340F3405A408018594107D349085FEA82
:1019000030005FEA350528BF45F0010501F580117B
:10191000420875F1004250F1000041EB0451F0BC67
:101920004FF4001C1CEB410F38BF70470020090D1D
:10193000090570471CEB410F10D252EA43060BD049
:10194000BCEB410F05D80C0DAB43661E342EB5DD44
:1019500002E0AB4380185941F0BC7047F0BC7047BF
:101960000021425CFF2A02D1491C1829F9D3182909
:1019700001D101207047417C55292BD10168DFF846
:101980008024914201D006207047017CDFF8742446
:1019900042290DD1DFF870145160DFF870149160A6
:1019A000012111704068B0F5984F0FD802207047A0
:1019B00041290DD1DFF858145160DFF858149160B7
:1019C000012111704068B0F5003FEFD90520704744
:1019D00004207047032070472DE9F04F91B001209B
:1019E00000F006FB4FF48054DFF82C64FF22214600
:1019F000304600F03DFD30190890FF22214600F0EE
:101A000037FD4FF4005030440990FF22214600F08A
:101A10002FFDDFF8EC03DFF8EC430FF2284A0FF25A
:101A200054490FF2084807901823DFF8F003069096
:101A30000AAA06A900F0D9F95FEA000B9FA508D011
:101A400000F034FD014601956B20009043464A4664
:101A500086E10AA8FFF784FF022858D0002700F08B
:101A6000C0F95FEA000B04D000F020FD019577215A
:101A700072E10020315CFF2934D000F0AEF920B1D2
:101A800000F0ABF900F1010B00E0CB4600F00EFDD9
:101A90007C2100915B4601460FF264420FF22C401C
:101AA00000F00AFD012000F0A3FA5FEA000B04D069
:101AB00000F0FCFC01957E214EE100F089F95FEA1F
:101AC000000B04D000F0F2FC0195802144E10120DC
:101AD00000F0D7FA5FEA000B08D000F0E7FC0195B0
:101AE000822139E1401CB0F5805FC3D37F1C212FD8
:101AF00080F04C81202FB2D1002300F074F95FEA0E
:101B0000000BB6D000F0D2FC0195732124E100F067
:101B100064F918B100F061F9471C00E04F4600F08D
:101B2000C5FC0B990FF2D83204913B46A168039192
:101B300061680291217801918A21009101460FF29A
:101B4000C83000F0B9FC60680590AD480790207877
:101B500000F04EFA5FEA000B04D000F0A7FC0195FC
:101B60009021F9E0A2686168207800F046FA5FEA07
:101B7000000B04D000F09AFC01959221ECE00B9848
:101B8000000B00900027009887424AD10B9801056E
:101B900047D0C0F30B0300F026F95FEA000B04D036
:101BA00000F084FC01959721D6E0207800F020FA1F
:101BB0005FEA000B04D000F079FC01959921CBE09D
:101BC0000B98C0F30B032078324605A900F025FAE4
:101BD0005FEA000B04D000F069FC01959B21BBE09B
:101BE0000B98089AC0F30B030598C01A059005A935
:101BF000207800F029FA5FEA000B04D000F056FCD0
:101C000001959E21A8E00B980899C0F30B0230467D
:101C100000F064FC002853D000F048FC0195A0219E
:101C200041E000F0DEF85FEA000B04D000F03EFC7B
:101C30000195A42190E0207800F0DAF95FEA000B2A
:101C400004D000F033FC0195A62185E020784FF404
:101C50008053324605A900F0E0F95FEA000B04D09A
:101C600000F024FC0195A82176E00598089AA0F5DB
:101C7000805005904FF48053207805A900F0E4F9D6
:101C80005FEA000B04D000F011FC0195AB2163E08A
:101C900008994FF48052304600F020FC80B100F0EB
:101CA00005FC0195AD210091434601464A46504648
:101CB00000F002FCDFF868B16BE000BF000000003C
:101CC00000987F1CB842BFF45EAF00F086F818B1F0
:101CD00000F083F8461C00E04E4600F0E7FBB02120
:101CE0000091334601460FF218220FF27C2000F0DB
:101CF000E3FB00F07DF800F0A7F95FEA000B04D0E9
:101D000000F0D4FB0195B42126E00998FF221821A8
:101D100000F0AEFB434A4149012000F06EF95FEA52
:101D2000000B04D000F0C2FB0195B82114E000F0D4
:101D30005FF800F072F95FEA000B04D000F0B6FB28
:101D40000195BC2108E000F043F85FEA000B0BD0DE
:101D500000F0ACFB0195BF21009143464A46014685
:101D6000504600F0A9FB14E000F037F818B100F07D
:101D700034F800F1010900F099FBC02100914B46B5
:101D800001460FF27C120FF2142015E0BBF1000F98
:101D900014D000F022F818B100F01FF800F101098A
:101DA00000F084FBC3210091CDF804B001464B46FE
:101DB0000FF24C120FF2082000F07EFB012000F021
:101DC00060F9207800F05DF9584611B0BDE8F08F59
:101DD000154A0B49012000F010B95C21484600F07B
:101DE000AEBB4FF48053324607A9012000F02CB956
:101DF0000A48099A06904FF4805306A901207047BB
:101E000000600208B035002000040008FF4F000801
:101E100000600008FF5F0208300400200050000846
:101E2000A5E5FFFFFF5F0008FF5F04087369676EA9
:101E3000656420696E742075706461746528766FBE
:101E4000696429000D0A5B25645D5B504F5745525C
:101E5000424F4152443A25733A25733A2534645D22
:101E6000202A2A4153534552542A2A2025730D0A09
:101E700000000000463A5CD6F7CFDFB0E6B1BE5CAA
:101E8000B5A5C6ACBBFAC9FDBCB6B3CCD0F25C50AC
:101E9000726F6A656374735C53544D3332463130EC
:101EA0003352422D506F776572426F6172645C628B
:101EB0006F6F746C6F616465725C5570646174659A
:101EC0005F666F725F4F54412E6300005B25645D57
:101ED0005B25733A2025733A2534645D2055706480
:101EE0006174652064617461206E65656420746F3F
:101EF000206265206572617365640D0A0000000050
:101F000055504441544500005B25645D5B25733AA0
:101F10002025733A2534645D205772697465204F1B
:101F20005441206461746120746F20646573746926
:101F30006E6174696F6E2C20747970653A25642C1B
:101F40002066726F6D2030782530387820746F20CD
:101F50003078253038782C206C656E6774682030B6
:101F60007825780D0A0000005B25645D5B25733AD7
:101F70002025733A2534645D2055706461746520B2
:101F8000737461727420746F20636C656172206475
:101F90006174612E2E2E0D0A000000005B25645D29
:101FA0005B25733A2025733A2534645D20557064AF
:101FB00061746520737563636573730D0A000000B7
:101FC0005B25645D5B25733A2025733A2534645D97
:101FD0002055706461746520657869742077697430
:101FE0006820657272203D2025640D0A0000000003
:101FF000012808BF00F04BB80DE00B460128114640
:1020000009D1B3F1006F02D3B248814201D3B24883
:10201000704718465EE0B148704710B50C4611464F
:1020200001281A460ED12068B0F1006F04D3206851
:10203000AB4B1018984201D3A74810BD2046BDE80D
:10204000104068E0A54810BD70B50446012C0D464F
:1020500010461E4613D12968B1F1006F04D32968D8
:102060009F4A7118914201D39B4870BD296832463E
:10207000FEF7EEFF286830182860002070BD9748F2
:1020800070BD80B5012800D140E1944802BD00B583
:1020900087B000F097FA00F0A7FA684600F0C8FB96
:1020A000029800F44040B0F5404F0BD00120009062
:1020B000002001904FF440400290684600F06BFB16
:1020C00000F09EFA00F097FA86493420086007B0C5
:1020D000002000BD10B588B0002405900294081AB5
:1020E000C00A0690039402A903A800F0EDFA78B1A3
:1020F00000F0DCF976A101918C21009101460FF2EC
:1021000018230FF280220FF24C20774C00F0D4F904
:10211000204608B010BD2DE9F74F05460092002477
:1021200028680FF26029C0070E46A3461AD52E680C
:102130005C21484600F003FA6C4C28B15C2148460B
:1021400000F0FDF900F1010900F0B0F99C210091C7
:10215000019601464B460FF20C320FF2D42000F0EC
:10216000ABF9AEE028680FF2EC1A0FF26C2810F011
:10217000030F57A722D0328800F0C3F840B100F017
:1021800095F901460197A220009043464A4692E005
:1021900000F0B2F804D000F089F90197A3216DE0B6
:1021A0000298801E0090B61C2868801C286005E0FC
:1021B0002868001D2860361D0BF1010B0098BBEB51
:1021C000900F3EBF28684A49884217D23068019074
:1021D000024629680023022000F0BEF920B100F079
:1021E00065F90197AF2162E028680199006888428B
:1021F000DED000F05BF90197B0213FE0009810F0CD
:10220000030F61D000F00300326801280CD102F006
:10221000FF0040F47F4200F074F8002850D000F036
:1022200045F90197B92142E00098002300F003002E
:102230000228296892B212D100F065F820B100F0AE
:1022400035F90197BF2132E000F056F804D000F0D4
:102250002DF90197C02111E02868801C33E000F0BF
:1022600052F820B100F022F90197C5211FE000F0DB
:1022700043F80CD000F01AF90197C62100914346AB
:1022800001464A46504600F017F91A4C1CE02868EF
:10229000801C2860002316F8020F296840F47F4252
:1022A00000F031F860B100F001F90197C921009107
:1022B00043464A460146504600F0FEF80A4C03E009
:1022C00028682868401C28602046BDE8FE8F000072
:1022D0000000000000000808CFE5FFFFB1E5FFFFA8
:1022E000010008080C200240A5E5FFFF97E5FFFF6D
:1022F000FDFF0708C7E5FFFF28683188008888428E
:10230000704729680023012000F026B900F061F928
:10231000002002BD000000007369676E65642069DB
:102320006E7420696E7465726E616C466C61736860
:10233000457261736528756E7369676E656420699F
:102340006E742C20756E7369676E656420696E7497
:10235000290000000D0A5B25645D5B504F57455214
:10236000424F4152443A25733A25733A2534645D0D
:10237000202A2A4153534552542A2A2025730D0AF4
:1023800000000000463A5CD6F7CFDFB0E6B1BE5C95
:10239000B5A5C6ACBBFAC9FDBCB6B3CCD0F25C5097
:1023A0006C6174666F726D5C436F6D6D6F6E5C43D4
:1023B0006F727465782D4D335C53544D3332463112
:1023C00078785C6E626F73447269766572466C6190
:1023D00073682E63000000007369676E656420698E
:1023E0006E7420696E7465726E616C466C617368A0
:1023F000577269746528756E7369676E65642069C4
:102400006E7420766F6C6174696C65202A2C20755F
:102410006E7369676E656420696E74202A2C20755E
:102420006E7369676E656420696E74290000000030
:102430005B25645D5B25733A2025733A2534645D22
:1024400020777269746520616464726573732040DB
:1024500025303878206E6F7420616C69676E0D0AC4
:1024600000000000496E7465726E616C000000002F
:1024700062F30F2262F31F4200B500BF13009646BD
:102480009446103928BFA0E80C50FAD85FEA417C86
:1024900028BF0CC048BF40F8042BC90728BF20F84C
:1024A000022B48BF00F8012B00BD00000148006866
:1024B000704700BFBC3500200EB400B582B003A940
:1024C000009102466B460121034878440A30FDF72B
:1024D0000DFE06BC5DF810FBC121000003000020CA
:1024E00013F0030F09D0521E22BF13F8010B11F88D
:1024F00001CBB0EB0C00F3D07047121F22BF53F892
:10250000040B51F804CB6045F7D0121D0AD200BA73
:102510009CFA8CFCB0EB0C0038BF6FF0000088BF59
:1025200001207047521E22BF13F8010B11F801CB96
:10253000B0EB0C00F6D0521C08BF10467047C9B271
:10254000002203788B4208BF024610F8013B002BA3
:10255000F7D11046704700002DE9F84F534C06465E
:10256000207E0128894692469B4608BF022027D03C
:10257000012020764CF25038404600F050F801001F
:102580001CD1012E1CBF022E04260027484D00E05E
:102590007F1CB74212DA504659463A0100F036FA2B
:1025A00081B209EB470000F030F8404600F037F800
:1025B00029684908490029600100E9D000212176F5
:1025C000BDE8F28F3C48C168090600D506E001204D
:1025D00070473748016841F0800102E037490160E7
:1025E000374901600020704736488168890500D46A
:1025F000F4E7012070472E48016821F40071F0E7EC
:1026000080B500F054FA002002BD284B0022DA61A8
:10261000274A136843F0010313600180704770B5C7
:102620000546FFF743FF0646224C2068C0070AD53F
:1026300015F1010FF9D025B1FFF738FF801B854256
:10264000F3D2032070BD2068800644BF20202060A4
:102650002068C00605D42068400702D42069C0075E
:1026600003D500F004F8012070BD002070BD1148B2
:102670000E490268D20603D5CA6942F00202CA6155
:102680000268520703D5CA6942F00102CA610269B1
:10269000D20707D5CA6942F00402CA610169490834
:1026A000490001611421016070470000903500204D
:1026B000102002400C200240042002402301674504
:1026C000AB89EFCD082002402DE9F047DFF82473F5
:1026D0000446387E01260128884608BF022038D0EB
:1026E0003E764CF250392068C34D022848460DD141
:1026F000FFF795FF50BB012000F0A9F800F0F8F8B3
:102700000646286820F0040028601FE0FFF787FFD6
:10271000E0B94FF0FF30C8F80000D4F808A001E09D
:102720000AF5006AA068E16800EBC12082450DD27D
:10273000504600F04FF900F0DBF80646286820F01C
:10274000020028603000EBD0C8F800A000203876E6
:102750003046BDE8F08770B500F035F900F02DF98E
:10276000010008D100F008F800F021F903D1E0B22F
:10277000BDE8704004E170BD9E499F4E0020C861D5
:10278000306840F020003060306840F04000306039
:102790002846FFF744BF2DE9F04104460120217887
:1027A000C90708D56168A068012902D100F05CF86A
:1027B00001E000F0A0F82178890744BF207C00F0F8
:1027C000DFF821788C4D8B4E49074CF2503814D5E8
:1027D000677C00F02AF801000FD10020F0618749E2
:1027E000286840F01000286047F08800088000F05A
:1027F0001CF8296821F0100129602178090712D5F9
:10280000277E646900F011F801000CD10020F0610E
:10281000286840F010002860278000F006F829683A
:1028200021F010012960BDE8F0814046FFF7F7BEB6
:1028300038B5044607202060714D6868A06000F03C
:10284000C2F820742868C0F38200607431BD694901
:102850000020C8616848016841F004010160016816
:1028600041F04001016070472DE9F047624C216959
:1028700021EA000000F033F801002ED100F07CF8CE
:1028800001002AD100F071F806D03888284038803D
:1028900000F02EF8010008D1B8F1FF0F07D07888BA
:1028A00008EA0000788000F023F8010008D1BAF1AE
:1028B000FF0F07D0B8880AEA0000B88000F018F8C7
:1028C000010006D1FF2E04D0F8883040F88000F0D7
:1028D0000FF8216821F010012160BDE8F08700F0B9
:1028E000FF05C0F30728C0F3074A060E4CF2503923
:1028F0004846FFF794BE2DE9F0473F4C2169084355
:10290000FFF7EDFF01002ED100F036F801002AD1CB
:1029100000F02BF806D0388828433880FFF7E8FF0E
:10292000010008D1B8F1FF0F07D0788848EA00000D
:102930007880FFF7DDFF010008D1BAF1FF0F07D063
:10294000B8884AEA0000B880FFF7D2FF010006D13C
:10295000FF2E04D0F8883043F880FFF7C9FF2168C4
:1029600021F010012160BDE8F087216841F01001DD
:10297000FF2D2160234F70471E490020C861EAE601
:1029800070B500F01AF8010010D1FFF7F5FE00F065
:102990000EF80BD1306840F0100030601A48048007
:1029A000FFF7F6FE316821F01001316070BD31682B
:1029B00021F0200131600100704704464CF250358F
:1029C0002846FFF72CBE0E490968A520890748BF95
:1029D00000207047074A0021D16107490A6842F088
:1029E00002020A604860086840F0400008607047D2
:1029F00000000000903500201020024002F8FF1F68
:102A00001C20024008F8FF1F00F8FF1FD2B2203A36
:102A100022BF21FA02F0002170472032D141D0407C
:102A200048409140D14048407047000009010028CB
:102A300006D52F4A00F00F00104400F8041C704720
:102A40002C4A115470472C490A684FF6FF030002C4
:102A50001A4000F4E0601043284A104308607047B1
:102A600038B5254B1B68C3F30223C3F10704052CBB
:102A700028BF04241D1D072D34BF0023DB1E0125A4
:102A800005FA04F4641E2140994005FA03F35B1E25
:102A90001A401143BDE83440C8E7012100F01F028D
:102AA0009140174AFFE7400942F820107047BFF3F2
:102AB0004F8F1148134A016801F4E061114301602E
:102AC000BFF34F8F00BFFDE710B5401EB0F1807F10
:102AD00001D3012010BD0C4C60600F214FF0FF307E
:102AE000FFF7A4FF0020A06007202060002010BD99
:102AF00018ED00E000E400E00CED00E00000FA0555
:102B000000E100E00400FA0510E000E02DE9F843E0
:102B1000044641F289382078DFF82465C00750D593
:102B200000F028FA05D000F02AFA0BD17068C00333
:102B300008D500F05CF9002843D06068002840D137
:102B4000012047E1306800F056F93060FFF7AEFC35
:102B5000054600F04CF928B1FFF7A8FC401B4045A2
:102B6000F7D334E16068B0F5803F09D008B9306828
:102B70000AE0B0F5A02F306806D140F48020306024
:102B8000306840F4803001E000F035F93060606872
:102B900058B1FFF78BFC054600F029F988B9FFF71B
:102BA00085FC401B4045F7D311E1FFF77FFC05464C
:102BB00000F01DF928B1FFF779FC401B4045F7D321
:102BC00005E12078DFF87C74800716D5706810F076
:102BD0000C0F05D000F0D3F926D17068C00323D4C0
:102BE00000F010F91CBF20690128A9D13068616983
:102BF00020F0F80040EAC10030602078000732D5AC
:102C0000A169DFF8440400294ED001210160FFF7DB
:102C10004DFC0546706AC0F3400010BBFFF746FC50
:102C2000401B6528F6D3D2E0206968B101203860E6
:102C3000FFF73CFC054600F0E5F8D7D1FFF736FC7E
:102C4000401B6528F7D3C2E03860FFF72FFC05462C
:102C500000F0D8F8D1D0FFF729FC401B6528F7D346
:102C6000B5E000F011FA207840076CD5F069DFF884
:102C7000DC9340F08050F061F06900F080500090EB
:102C80000098D9F8000040F48070C9F80000FFF700
:102C90000DFC0546D9F80000C00514D4FFF706FC6A
:102CA000401B6528F6D392E00160FFF7FFFB054665
:102CB000706AC0F340000028D5D0FFF7F7FB401B37
:102CC0006528F5D383E0306A00F086F83062FFF7BC
:102CD000EDFB0546306AC0F3400028B1FFF7E6FB84
:102CE000401B4045F6D372E0E068012808D008B9DF
:102CF000306A09E00528306A06D140F004003062ED
:102D0000306A40F0010001E000F066F83062E068EF
:102D100060B1FFF7CBFB0546306AC0F3400090B9C5
:102D2000FFF7C4FB401B4045F6D350E0FFF7BEFB66
:102D30000546306AC0F3400028B1FFF7B7FB401BDF
:102D40004045F6D343E0E069002842D0716801F0C5
:102D50000C0108293FF4F4AE02282CD100F043F80E
:102D600005463068C0F3406028B1FFF79FFB401B69
:102D70006528F6D32BE0206AB0F5803F05D1706856
:102D8000A16820F40030084370607068216A20F464
:102D900074100843616A08437060012000F024F851
:102DA00005463068C0F3406098B9FFF77FFB401BD1
:102DB0006528F6D30BE000F016F805463068C0F33E
:102DC000406030B1FFF772FB401B6528F6D303204B
:102DD00000E00020BDE8F283400840003062306A25
:102DE00020F00400704700203866FFF75FBB3068B2
:102DF000C0F34040704720F480303060306820F4E9
:102E0000802070473068C0F34000002870472DE9EB
:102E1000F843DFF83C52DFF8286204462868894608
:102E200000F00700484541F289383BD200F091F8A4
:102E300074D100F0A9F873D56068012803D1316816
:102E4000C1F3404104E00228316803D1C1F340617D
:102E500021B963E0C1F3400100295FD000F083F89D
:102E600007466068012808D100F084F858D0FFF7C1
:102E70001DFBC01B4045F7D34BE0022808D100F0F2
:102E80007EF84DD0FFF712FBC01B4045F7D340E062
:102E9000706810F00C0F43D0FFF708FBC01B4045D3
:102EA000F6D336E000F070F835D56068012803D11C
:102EB0003168C1F3404104E00228316803D1C1F315
:102EC000406119B92AE0C1F3400139B300F04BF871
:102ED00007466068012808D100F04CF81BD0FFF7C6
:102EE000E5FAC01B4045F7D313E0022808D100F0F3
:102EF00046F810D0FFF7DAFAC01B4045F7D308E0D8
:102F0000706810F00C0F06D0FFF7D0FAC01B4045D8
:102F1000F6D303201BE000F01CF801D0012016E0DE
:102F20002078400705D57068E16820F4E060084328
:102F300070602078000706D57068216920F4605021
:102F400040EAC10070600F2000F0AAF80020BDE840
:102F5000F2832868C00849EAC0002860286800F0A9
:102F60000700484570477168890840EA8100706031
:102F7000FFF79CBA706800F00C0004287047706876
:102F800000F00C00082870472078800705D570688D
:102F9000A16820F0F000084370602078C0077047F7
:102FA00000B585B001A80FF2BC011022FEF760F851
:102FB0000FF2C0000088ADF800002648016801F05B
:102FC0000C02082A12D101AAC1F38343C903D25CBF
:102FD00009D500682049C0F340401DF80000B1FB4E
:102FE000F0F0504303E01D48504300E01A4805B09C
:102FF00000BD80B5FFF7D4FF164B0FF27C021B68B3
:103000001749C3F30313D25CD0400860086802BDBF
:1030100080B5FFF7EEFF00F00DF8C2F3022206E0E4
:1030200080B5FFF7E6FF00F005F8C2F3C222895C25
:10303000C84002BD074A0FF2400112687047000005
:1030400000100240000042428004424200700040F2
:10305000002002400410024000127A0000093D00E6
:103060002800002002030405060708090A0B0C0DBE
:103070000E0F101001020000000000000102030406
:10308000010203040607080911B581B0FFF70EFA23
:103090000446FFF70BFA0199001B8842F9D313BDD0
:1030A00010B50446FFF7A5FF6421B0FBF1F0FFF770
:1030B0000BFD002221464FF0FF30FFF7D1FC00202E
:1030C00010BD000038B5050001D1012032BD00F06F
:1030D00030F808B900F01DF800F011F800F007F81A
:1030E00021F02A01FFE7416100F017F832BD28689E
:1030F000016921F49041016128684169704702200B
:1031000060702868C16821F40051C160284600F051
:10311000FBB92070284600F04CBA2868C16841F419
:103120000051C16000206060012060700020704785
:10313000054605F1380460787047F8B500F094F85A
:1031400018BF22281E463ED10DB1100001D101202A
:10315000F2BD3878012836D000F091F822280CBF53
:10316000322012207870A284E28406E000F083F816
:1031700008BB216815F8010B4860E08C010014D0F1
:10318000401EE0843346A068B0F5805FEED100F0C9
:1031900072F880B928882168C0F308004860206967
:1031A000002814BF6D1CAD1CE7E733460022402108
:1031B00000F063F808B10320F2BD787832280CBF24
:1031C0002220012061E00220F2BDF8B500F04CF8A9
:1031D00018BF12281E4645D10DB1100001D10120A3
:1031E000F2BD387801283DD000F049F812280CBF14
:1031F000322022207870A285E285E08D01002BD05C
:10320000401EE0853346A068B0F5805F12D10022F1
:10321000202100F032F890B9206900282068406829
:1032200019BF00F0FF0025F8010BC0F3080025F8D6
:10323000020BE2E70022202100F01FF808B1032072
:10324000F2BD206900282068406802D105F8010B12
:10325000D3E700F07F00F9E7787832280CBF12201E
:10326000012012E00220F2BD044604F138070D46A9
:10327000787801287047002280212046A3E00120B1
:103280003870002078607878704778700020387047
:10329000F2BD10B5044682B020680168C268C90753
:1032A0000AD5D10508D501680091416800910099BF
:1032B000E16B41F00101E1630268416992070AD5BF
:1032C000CA0708D50268009242680092009AE26B31
:1032D00042F00402E263026852070AD5CA0708D521
:1032E0000268009242680092009AE26B42F0020289
:1032F000E263026812070AD5C90708D50168009180
:10330000416800910099E16B41F00801E1630168B7
:10331000C268890608D5910606D5DFF88C12884266
:103320001CBF204600F09FF820680168C2680906AB
:1033300026D5110624D594F83910122918BF322940
:103340001ED1A168B1F5805F216A0BD10988C1F354
:103350000801416020690028206A0CBF801C401CC5
:10336000206203E04A1C226209784160E08C401E22
:10337000E08480B220B900F06EF841F04001C160F5
:1033800020680168C268490612D5510610D5C16887
:1033900021F04001C16094F83900322808BF222092
:1033A00001D000F051F884F83900204600F01EFAF0
:1033B000E06B38B1012084F839002046BDE81640A2
:1033C00000F015BA13BD2DE9F84304460E469146A8
:1033D0001F46FFF76BF8B9F1000F804604F138057E
:1033E0000FD1206800683040B0422AD017F1010F99
:1033F000F7D0AFB1FFF75AF8A0EB08008742F0D240
:103400000EE0206800683040B0421AD117F1010F79
:10341000F7D02FB1FFF74AF8A0EB08008742F0D2AF
:1034200000F019F821F02001C1602068C16821F482
:103430008071C16000F008F86870002028700320D7
:1034400000E00020BDE8F283206841694908490096
:103450004161012070472068C16821F08001C1608E
:103460002068C168704780B590F83910222918BFCC
:10347000322947D18168B1F5805F12D10269816A32
:10348000002A0268526805D1C2F308020A80816AE4
:10349000891C04E002F0FF020A80816A491C8162F3
:1034A0000FE001690029816A04D14A1C8262026826
:1034B000526805E04A1C82620268526802F07F028C
:1034C0000A70C18D491EC18589B2C9B90168CA682F
:1034D00022F02002CA6090F83910322908BF122168
:1034E0000AD00168CA6822F48072CA6001684A6919
:1034F000520852004A61012180F8391000F078F931
:10350000002002BD022002BD2DE9F04104466425E1
:1035100020680169E26821F44051114301611926D4
:10352000C168224A1140A2681143226911436269AD
:103530001143C1604169A26921F4407111434161A5
:103540001949884208D1FFF76BFD8046FFF768FDF7
:103550000746FFF765FD07E0FFF75AFD8046FFF7D6
:1035600057FD0746FFF754FD704306FB07F36168FC
:103570008A00B0FBF2F0B3FBF2F3B0FBF5F005FB11
:103580001030000106FB08F13230B1FBF2F1B0FB64
:10359000F5F0B1FBF5F100F00F0040EA01102168F1
:1035A0008860BDE8F081000000380140F3E9FFFFCA
:1035B00070472DE9F043044685B02068DFF810120B
:1035C000DFF81062DFF81082DFF8107288424FF4E3
:1035D00000556AD17868DFF8089240F008007860FA
:1035E00001A900F0E6F8786840F00800786000F083
:1035F000E0F8B86840F48020B860B86800F4802033
:1036000000F0DDF800F00100009000984FF48060B9
:1036100000F0C1F8484600F0EDF84FF4006001906A
:1036200001A900200290484600F0E4F810207060E4
:10363000C6F800800020B0608020F060002030617B
:103640007061B061F061304600F0C6F908F1140015
:103650002663B06374620020F06330647565802077
:1036600070640020B064F064306506F1380000F04A
:10367000B3F906F138006063F465012202210C20E1
:10368000FFF7EEF90C20FFF708FA002202210D20C7
:10369000FFF7E6F90D20FFF700FA022200212720AC
:1036A000FFF7DEF92720FFF7F8F92068DFF834117B
:1036B00088426DD1786840F00400786001A900F07C
:1036C00072F8786840F00400786000F06CF8B86830
:1036D00040F40030B860B86800F4003000F06FF8D3
:1036E000414F00F0010000900098042000F053F8D2
:1036F000384600F07FF80820019001A900200290D0
:10370000384600F077F808F16400306706F1840766
:10371000102070670020B0678020F0670020C6F896
:10372000800038607860B86006F1700000F054F9ED
:1037300006F1700020633C6108F1500078620020BF
:10374000B862F8628020386300207863B863F86359
:103750003D6406F1A805284600F03EF96563BC64A7
:10376000012201211120FFF77BF91120FFF795F9C4
:10377000002201211020FFF773F91020FFF78DF9C7
:10378000012200212620FFF76BF92620FFF785F99B
:1037900005B0BDE8F0830190022002900120039063
:1037A000032004907047786800F0040000900098AF
:1037B0007047786800F0080000900098704700900B
:1037C0000098386840F001003860386870470000A1
:1037D00000480040303400201C0002401410024019
:1037E000000C014000440040000801407047704751
:1037F000704700002DE9F8474FF0000E0022654B9E
:10380000DFF89481DFF894914FF00F0A012707FA4F
:1038100002F60F683740B74240F0AA804C685CB3AC
:10382000012C1AD0022C1FD0032C31D0112C17D010
:10383000122C1DD05A4DAC421CBF5A4DAC421BD06D
:10384000594DAC421CBF594DAC4215D0584DAC42FD
:103850001CBF584DAC420FD01CE0D1F80CE019E071
:10386000CC6804F1040E15E0CC6804F1080E11E0F8
:10387000CC6804F10C0E0DE08C6814B94FF0040E06
:1038800008E0012C4FF0080E14BF4661066101E00C
:103890004FF0000EFF2F02D88446940004E0A2F1FE
:1038A000080400F1040CA400DCF800500AFA04F645
:1038B000B5430EFA04F42C43CCF800404C68E40005
:1038C00056D5D9F8004044F00104C9F800404FEA49
:1038D000920CD9F8005005F001040094009C58F8AF
:1038E0002C50940004F00C040AFA04F6B543324E4E
:1038F000B04208BF002618D0304EB04208BF0126A3
:1039000013D02F4EB04208BF02260ED02D4EB0422B
:1039100008BF032609D02C4EB04208BF042604D0AD
:103920002A4EB0420CBF0526062606FA04F42C43A4
:1039300048F82C40FD434C68E4031C684CBF3C43F2
:103940002C401C604C68A4035C684CBF3C432C407A
:103950005C604C68E4029C684CBF3C432C409C601B
:103960004C68A40247BFDC682743DF682F40DF6054
:10397000521C102AFFF44AAFBDE8F18702B90904CE
:1039800001617047124A136803421CBF106000F0C7
:1039900021B870470004014008000140181002409F
:1039A0000000111000001210000021100000221071
:1039B000000031100000321000080140000C0140EE
:1039C000001001400014014000180140001C01409B
:1039D000140401407047000008B90120704790F8B6
:1039E000211009B980F82010022180F82110016807
:1039F0000A6843686FF30D121A4383681A43C36859
:103A00001A4303691A4343691A4383691A43C36912
:103A10001A430A6000214163012180F8211000202F
:103A200070472DE9F0478146DFF8E083D9F800E0E0
:103A3000DFF80854DFF8E8A3DFF80474C6454FF058
:103A400000634FF4000C4FF400204FF400414FF49A
:103A5000006217D33C68D64508BF08263CD0DFF883
:103A6000BC63B64508BF802636D0DFF8AC63B645E8
:103A700008BF164630D0DFF89C63B64514BF064633
:103A80000E4629E0DFF888632C68B6451FD0DFF8C2
:103A90009863B6451DD0DFF88C63B6451BD0DFF8C0
:103AA0008C63B64508BF0E4616D0DFF88463B64572
:103AB0000BD0DFF88063B64508BF66460CD0DFF850
:103AC0007863B64508BF1E4606D0064604E00826C1
:103AD00002E0802600E01646344059D0DEF800406F
:103AE000240755D5DEF8004024F00804CEF8004045
:103AF000D9F80060464516D3564508BF082010D0B7
:103B0000DFF818339E4208BF80200AD0DFF8083360
:103B10009E4208BF104604D0DFF8F822964208BF44
:103B2000084678601FE0BA4CA64216D0BE4CA642AA
:103B300015D0BC4CA64214D0BC4A96420EBF0846D3
:103B4000BB498E420ED0BB498E4208BF604609D0A9
:103B5000B9498E4206D1184604E0082002E08020D0
:103B600000E01046686009F1280009F12801C068EA
:103B700040F00100C860042089F82100002089F885
:103B8000200009F12800816808001CBF48468847CA
:103B9000D9F800E0C6454FF080634FF4800C4FF435
:103BA00080204FF480414FF4806214D33C68D645A6
:103BB00008BF042632D0994EB64508BF40262DD006
:103BC000954EB64508BF164628D0924EB64514BF4E
:103BD00006460E4622E08E4E2C68B64519D0924E0F
:103BE000B64518D08F4EB64517D0904EB64508BF93
:103BF0000E4613D08E4EB64509D08E4EB64508BF40
:103C000066460BD08C4EB64508BF1E4606D006460B
:103C100004E0042602E0402600E0164634404FD07F
:103C2000DEF8004064074BD5DEF80040A40605D45A
:103C3000DEF8004024F00404CEF80040D9F800601B
:103C4000464513D3564508BF04200DD0734B9E4202
:103C500008BF402008D0704B9E4208BF104603D0DA
:103C60006C4A964208BF084678601FE0684CA6423E
:103C700016D06D4CA64215D06A4CA64214D06B4AA1
:103C800096420EBF08466A498E420ED069498E425E
:103C900008BF604609D068498E4206D1184604E044
:103CA000042002E0402000E010466860112089F8FE
:103CB000210009F12800416808001CBF48468847D8
:103CC000D9F800E0C6454FF000734FF4001C4FF4E4
:103CD00000304FF400514FF4007214D33C68D645C5
:103CE00008BF022632D04D4EB64508BF20262DD043
:103CF000494EB64508BF164628D0464EB64514BFB5
:103D000006460E4622E0424E2C68B64519D0464E75
:103D1000B64518D0434EB64517D0444EB64508BFF9
:103D20000E4613D0424EB64509D0424EB64508BFA6
:103D300066460BD0404EB64508BF1E4606D0064626
:103D400004E0022602E0202600E01646344059D066
:103D5000DEF80040A40755D5DEF80040A40605D4DF
:103D6000DEF8004024F00204CEF80040D9F800400C
:103D7000444513D3544508BF02200DD0274B9C4225
:103D800008BF202008D0244B9C4208BF104603D017
:103D9000204A944208BF084678601FE01C4EB44297
:103DA00016D0214EB44215D01E4EB44214D01F4A34
:103DB00094420EBF08461E498C420ED01D498C42CB
:103DC00008BF604609D01C498C4206D1184604E061
:103DD000022002E0202000E01046686009F128007F
:103DE00009F12801C068C860012089F8210000207D
:103DF00089F82000D9F82810080003D04846BDE80B
:103E0000F0470847BDE8F08700000000810002404D
:103E10000800024044040240300402401C040240F6
:103E200008040240300002401C00024044000240EE
:103E3000580002406C000240800002400000024036
:103E40000004024080B500F0A9F900F0D7F900F0B5
:103E50007DF9FDF7C1FD0FF23C020FF22C010FF2CC
:103E60003C00FEF729FB0123012269460548FFF7C4
:103E7000ACF99DF80000352818BF00F045F900F0B6
:103E8000BFF9FCE71035002053544D333246313032
:103E9000335A45004D435F56312E32000D0A4D6FA7
:103EA000746F724374726F6C657220426F6F746CC2
:103EB0006F6164657220666F722025732C20484103
:103EC0005244574152455F5245564953494F4E3A25
:103ED0002025730D0A2B20636F6D6D616E64202D9C
:103EE0002D2D2D2D2D2D2D2D2D2D2D2D2D2D2D2D02
:103EF0002D2D2D2D2D2D2D2D2B2066756E63746986
:103F00006F6E202D2D2D2D2D2D2D2D2D2D2D2D2B6D
:103F10000D0A7C20303A424F4F545550444154458D
:103F2000202020203C2D723E2020202020202020F8
:103F300020202020207C2055706461746520626FF1
:103F40006F746C6F61646572202020207C0D0A7C88
:103F500020313A504152415550444154452020208F
:103F6000203C2D723E3C2D653E202020202020202C
:103F700020207C205570646174652070617261201E
:103F800073657474696E6773207C0D0A7C20323A05
:103F900046575550444154452020202020203C2D98
:103FA000723E202020202020202020202020207C45
:103FB00020557064617465206170706C6963617410
:103FC000696F6E2020207C0D0A7C20333A4D454DD0
:103FD0004F52594D415020202020202020202020C9
:103FE0002020202020202020202020207C204C6900
:103FF000737420666C617368206D656D6F727920D3
:104000006D61707C0D0A7C20343A424F4F54202061
:1040100020202020202020202020202020202020A0
:104020002020202020202020207C204578637574CB
:1040300065206170706C69636174696F6E20202007
:104040007C0D0A7C20353A5245424F4F54202020A7
:104050002020202020202020202020202020202060
:104060002020202020207C205265626F6F74202049
:10407000202020202020202020202020207C0D0A0D
:104080002B2D2D2D2D2D2D2D2D2D2D2D2D2D2D2D62
:104090002D2D2D2D2D2D2D2D2D2D2D2D2D2D2D2D50
:1040A0002D2D2D2B2D2D2D2D2D2D2D2D2D2D2D2D42
:1040B0002D2D2D2D2D2D2D2D2D2D2B0D0A7C202040
:1040C000202028432920434F505952494748542023
:1040D00032303136204D55594520436F72706F7222
:1040E0006174696F6E20204279204164616D2048BF
:1040F00075616E672020207C0D0A00004FF00101E1
:1041000040EA01008047704719481A4A0168114087
:10411000B1F1005F19D14FF0FF3E4FF0807181F394
:1041200000884FF0000181F3108881F3138881F338
:104130001188114981F314880A68520852000A60F4
:10414000016881F308884068D8E7704780B500208F
:1041500000F0EAF809494FF4E13000F014F928B111
:10416000BDE802400FF21800FEF7A6B901BD00003D
:10417000006000080000FE2F10E000E00048004052
:1041800055415254785F44656275675F496E697442
:10419000206572726F72210D0A00000000B58FB0A9
:1041A0006846142100F00AF905A8282100F006F954
:1041B00000F008F90120059000214FF480300690AE
:1041C0000D9007914FF4E01002210E900C9105A87C
:1041D000FEF79CFC00B1FEE70F20009002210220B8
:1041E00001900020029004904FF480600390684694
:1041F000FEF70DFE00B1FEE70FB000BD70470000F6
:104200002DE9F041A4B004A8802100F0D7F8684659
:10421000102100F0D3F80FF2DC040FF2D0050FF2FA
:10422000BC0804AE02E02046FEF746F94046FEF721
:1042300043F9802104A800F0D7F8002700E07F1C94
:10424000F05D2028FBD0F05D010004D000F00AF9F9
:10425000F0557F1CF7E7002000E0401C315C20296E
:10426000FBD0002103E00DF80120401C491C325C0A
:10427000202A01D01300F6D100200DF801002946B4
:1042800000F028F80028CED00FF2700100F022F8DC
:1042900018B10CA100F01EF838B90FF274020FF239
:1042A00064010A48FEF708F908E007A100F012F8D7
:1042B00020B10FF264010648FEF7FEF824B0BDE815
:1042C000F08100003F000000000000009C3E00085C
:1042D00000000020684600F0CBB800000A0D626FB5
:1042E0006F746C6F616465723E20000054455354D6
:1042F00000000000746573740D0A000048454C50BE
:104300000000000053544D3332463130335A4500DB
:104310004D435F56312E3200554E4B4E4F574E2077
:10432000434F4D4D414E440070B586B0044600F0F9
:1043300022F8DFF87800DFF87860016841F48071D6
:10434000016001A9006800F48070009000980FF2ED
:10435000680030F81450019501200290039003206A
:10436000049000F00CF856F8240000222946FFF7CC
:1043700005FB06B070BD01A8102100F01FB856F86B
:104380002400FFF737BA80B50A4AFFE750600020E3
:104390009060D0601061906111600C2050611046F7
:1043A000FEF790FE00B1012002BD0000181002408F
:1043B0001400002010350020000200000022FEF74B
:1043C0005BB8000080B50748016841F0100101604A
:1043D0000320FEF738FB0F20FEF762FEFFF7E8F838
:1043E000002002BD00200240F8B506460C4600271A
:1043F0001B4D4FF0FF33012269462846FEF7E5FECC
:104400009DF800000D2803D10A208DF8000014E06B
:10441000082818BF7F280CD1BFB1082000F04AF847
:10442000202000F047F8082000F044F87F1E761E98
:104430000BE0112818BF132807D09DF8000030703A
:104440007F1C16F8010B00F035F8601E874203DA76
:104450009DF800000A28CCD1002006F8010CF1BD1F
:1044600010350020A0F161011A2938BF20387047AB
:10447000820707D010F8012B11F8013BBAB19A421C
:10448000F6D014E002680B689A42A2F1013301BF32
:10449000934313F0803F50F8042F51F8043FF3D0BA
:1044A00010F8012B11F8013B0AB19A42F8D0D01A4A
:1044B0007047000001B50123012269460248FEF75A
:1044C0003CFE009802BD00BF103500200E480F4A88
:1044D000016841F0010101604168114041600C4AEE
:1044E000016811400160016821F480210160416888
:1044F00021F4FE0141604FF41F0181604FF0006024
:104500000449086070470000001002400000FFF8F6
:10451000FFFFF6FE08ED00E07047FEE7FEE7FEE76E
:10452000FEE770477047704700F01AB84020FFF769
:1045300029BA094805E0084807E00748FEF7A9BE80
:104540000648406BFFF76DBA0448006BFFF769BA85
:104550000248FEF79EBE00001035002050350020B6
:1045600002480168491C0160704700BFBC3500204B
:1045700019E050F8041BCB0744BFA9F101035918F7
:10458000121F0023042A41F8043BF9D25FEA827C1F
:104590000B4604D54FF0000CA1F800C09B1CD107BE
:1045A00044BF0021197050F8042B002AE1D1704754
:1045B00010B450F8041B79B1026843680244083013
:1045C000DC0744BFA9F10104E31852F8044B43F897
:1045D000044B091FF9D1ECE710BC70470A0D2A2AD9
:1045E0002A204552524F523A2025730A0D000000EE
:1045F0000020014000000000000000000102030450
:104600000607080900A24A0410B507497944183181
:10461000064C7C44163404E00A68081D114488479F
:104620000146A142F8D110BD08000000280000009A
:1046300041FFFFFF90310000300400200000000027
:1046400071FFFFFF2C00000094FFFFFF000000201F
:104650000000000000F00BF8002801D0FFF7D4FFA5
:104660000020C046C046FFF7EDFB00F002F8012035
:10467000704700F001B800000746384600F002F825
:10468000FBE7000080B5C046C046024A1100182072
:10469000ABBEFBE72600020038B504460D462846AF
:1046A000FFF708FFA84218BF0024204632BD0000D3
:1046B0000148804701480047CD440008C146000832
:1046C000C046C046C046C046FFF7C4FFFFF7FEBF66
:1046D000FFF7FEBFFFF7FEBFFFF7FEBFFFF7FEBF0E
:1046E000FFF7FEBFFFF7FEBFFFF7FEBFFFF7FEBFFE
:1046F000FFF7FEBFFFF7FEBFFFF7FEBFFFF7FEBFEE
:10470000FFF7FEBFFFF7FEBFFFF7FEBFFFF7FEBFDD
:10471000FFF7FEBFFFF7FEBFFFF7FEBFFFF7FEBFCD
:10472000FFF7FEBFFFF7FEBFFFF7FEBFFFF7FEBFBD
:10473000FFF7FEBFFFF7FEBFFFF7FEBFFFF7FEBFAD
:10474000FFF7FEBFFFF7FEBFFFF7FEBFFFF7FEBF9D
:10475000FFF7FEBFFFF7FEBFFFF7FEBFFFFFFFFF44
:10476000FFFFFFFFFFFFFFFFFFFFFFFFFFFFFFFF59
:10477000FFFFFFFFFFFFFFFFFFFFFFFFFFFFFFFF49
:10478000FFFFFFFFFFFFFFFFFFFFFFFFFFFFFFFF39
:10479000FFFFFFFFFFFFFFFFFFFFFFFFFFFFFFFF29
:10600000F06700200D200108856100088761000805
:10601000976100089B6100089F6100080000000074
:10602000000000000000000000000000A361000864
:10603000A561000800000000B3E60008A7610008A1
:106040002720010827200108272001082720010810
:1060500027200108272001085F6500082720010884
:10606000016600083366000827200108F161000876
:1060700027200108272001082720010827200108E0
:10608000272001089763000827200108272001081E
:10609000272001082720010827200108656600083D
:1060A00027200108272001082720010827200108B0
:1060B00027200108272001082720010827200108A0
:1060C0002720010827200108272001082720010890
:1060D00027200108F364000815630008876400089E
:1060E0002720010827200108272001082720010870
:1060F0002720010827200108272001082720010860
:10610000272001082720010819620008272001081C
:10611000D56300082964000873620008272001087D
:10612000272001082720010827200108C96100084D
:10613000DFF80CD00CF0FAFB00480047456100087E
:10614000F067002000B585B008F07BFF0320002138
:106150004FF40072084BCDE90132CDE903100A205B
:106160000346064A009006480AF05CFF09F054F81E
:10617000002005B000BD00009C0E002098160020F5
:10618000E96F00087047FC48006800F0010000B1AA
:1061900000BE00BFFEE700BFFEE700BFFEE700BF96
:1061A000FEE77047704710B508F062FA0446F348FE
:1061B0000078401CF1490870204608F05DFA09F0AB
:1061C00062F808F068FF10BD10B508F056FFEC4803
:1061D00006F0EDF948B1EA4806F0DEF9E84806F0C5
:1061E000FAF9E84800680AF07FFD08F054FF10BD96
:1061F00010B508F042FF022006F0D9F948B102209C
:1062000006F0CAF9022006F0E6F9DF4800680AF055
:106210006BFD08F040FF10BD10B508F02EFF012106
:10622000DA4808F00CF808B30121D84808F004F85F
:106230000121D64808F014F8D5480078B0B9D548FF
:10624000C06940F00100D349C8610846406C40F085
:10625000010048648020D049087000204870887090
:10626000C8700871CD48006809F050FF08F013FFAE
:1062700010BD38B500240020009008F0FEFE01217A
:10628000C74807F0DCFF002841D00121C44807F0CF
:10629000D3FF0121C24807F0E3FF06F0EEFEC1483C
:1062A00000F0704000F10070BE49C1F3130100EB33
:1062B0004110006878B1BC4800680AF0B5FB50B9DD
:1062C0000F21BA4800680AF088FA6A461921B648D0
:1062D00000680AF05EFDB6480078401CB4490870BA
:1062E00008460078322812DBB24800680AF09CFBAE
:1062F000044604EB8400B04981F823006A4600217B
:10630000AC4800680AF045FD0020A949087008F073
:10631000C2FE38BD08B50020009008F0AEFE40F285
:106320002441A64808F060F990B3A4480088C0B2A0
:106330000090A248001D0088C0B2009006F09DFEAB
:10634000002194486C3006F0F8F892486C3006F062
:106350000BF9C0F1FF009A49087008460178994886
:1063600003F0F4FB98480068401C97490860974880
:1063700000680AF0B9FC934886498867FF21854880
:106380006C3006F0EFF8012182486C3006F0D5F849
:1063900008F081FE08BD10B508F06FFE4FF00070E8
:1063A00006F005F998B100217A48803006F0C5F86A
:1063B0004FF0007006F0F0F84FF0007006F00BF9A7
:1063C00000BF40217D4808F0F9F80028F9D008F016
:1063D00062FE10BD08B50020009008F04EFE40F2AD
:1063E00024417B4808F000F9D8B179480088C0B250
:1063F00000907748001D0088C0B2009000217548C9
:1064000006F09BF8734806F0AFF8C0F1200072491F
:10641000087020216F4806F0A5F801216D4806F0AC
:106420008CF808F038FE08BD08B50020009008F090
:1064300024FE40F22551694808F0D6F850B167486B
:106440008088C1B2664802780078401C644B18709E
:106450006448815440F22441604808F0C5F878B19E
:106460005E480088C0B200905C488088C0B200904E
:1064700000205B4908705C495C4800680AF0ADF98F
:1064800008F009FE08BD1CB50020019008F0F5FDDC
:1064900040F22441564808F0A7F838B35448008821
:1064A000C0B201905248001D0088C0B2019006F0B1
:1064B000E4FD3848303006F057F8C0F12000009075
:1064C00000213448303006F038F83248006B4FF67F
:1064D000FE7108402F490863202048630846006B7E
:1064E00040F00100086300204249487008F0D3FDE5
:1064F0001CBD1CB50020019008F0BFFD40F22441F6
:106500003D4808F071F838B33B480088C0B20190AC
:106510003948001D0088C0B2019006F0AEFD1D484C
:10652000583006F021F8C0F12000009000211948F1
:10653000583006F002F80020304948701548806D48
:106540004FF6FE710840134988652020C86508464B
:10655000806D40F00100886508F09DFD1CBD10B500
:1065600008F08BFD012006F0B9F810B1012006F00B
:10657000C6F808F090FD10BDF0ED00E0D501002058
:1065800000000210300000202C000020000C004011
:10659000BD00002000000240740100204C000020DB
:1065A00000100040A000002008000020480000204B
:1065B000010000200C0000205C3800200044004056
:1065C000020000205B370020640100205000002002
:1065D000004C004030040240030000200050004006
:1065E00000000020340200200400002028000020C9
:1065F0000048004070010020003801406C0100207C
:1066000010B508F03AFD102006F068F870B11F4888
:106610000078022807D110211D4806F06AFC10B14D
:1066200001201C494861102006F069F808F033FD8C
:1066300010BD10B508F021FD082006F04FF870B12C
:1066400012480078012807D10821114806F051FCB2
:1066500010B101200F494861082006F050F808F0F9
:106660001AFD10BD10B508F008FD102006F036F830
:1066700010B1102006F043F8082006F02FF810B1F2
:10668000082006F03CF808F006FD10BD9C00002034
:10669000001401400010014008B5002000900AF0ED
:1066A000D9F95E49086000200AF0D4F95C49086015
:1066B00000200AF0CFF95B49086000200AF0CAF90F
:1066C0005949086000200AF0C5F9584908600020BF
:1066D00009F0C7FB5649086000200AF0BBF955498C
:1066E000086019200AF0B6F95349086000200AF042
:1066F000B1F95249086001200AF0ACF9504908602C
:1067000000200AF0A7F94F49086000200AF0A2F91A
:106710004D49086000200AF09DF94C4908600020AE
:106720000AF098F94A49086000200AF093F94949AB
:1067300008600A21484809F0A6FE484908600A2175
:10674000474809F0A0FE474908600A21464809F079
:106750009AFE464908600A21454809F094FE4549D9
:1067600008606B464FF482720B21434809F060FDCC
:106770004249086008BD00B585B0032000214FF4F0
:1067800080723F4BCDE90132CDE903101020034662
:106790003C4A00903C480AF045FC032000214FF49D
:1067A00000723A4BCDE90132CDE9031006200346D1
:1067B000374A009037480AF035FC032000214FF497
:1067C0000072354BCDE90132CDE903100E200346AE
:1067D000324A009032480AF025FC032000214FF491
:1067E0000072304BCDE90132CDE903100920034698
:1067F0002D4A00902D480AF015FC0320002180222C
:106800002B4BCDE90132CDE9031012200346294A72
:10681000009029480AF006FC05B000BD2C000020BD
:10682000300000203C000020340000203800002010
:106830004C00002050000020080000200C00002028
:106840001000002014000020180000201C00002070
:1068500020000020240000209C1600204000002082
:10686000EC2A0020480000207402002028000020AC
:10687000C4260020440000208C3800201C01002089
:106880009C02002098060020556900089C06002004
:10689000980E0020096C0008C4160020C01E0020BD
:1068A00025790008C41E0020C0260020257C000891
:1068B0001433002010350020B57C00082DE9F0418C
:1068C0000646002400250027BD48016830460BF02D
:1068D000FFFE03D86FF01300BDE8F081B848D0F890
:1068E000301230460BF0EAFE01D87820F4E700249D
:1068F0000CE004EB4400B24A02EB001001683046A1
:106900000BF0E6FE00D203E0601CC4B20C2CF0DBFE
:1069100000BF14B96FF01300DEE7601EC4B200259B
:106920000DE004EB4400A64A02EB001050F82510DD
:1069300030460BF0CDFE00D203E0681CC5B20C2D32
:10694000EFDB00BF04EB440005EB8000143847B2D6
:106950003846C1E790B000200E90142109A80BF032
:1069600080FB142104A80BF07CFB00BF00200390E7
:10697000029000BF934800680AF0B6F906209249D9
:1069800008700121914805F076FB0121904805F03F
:1069900072FB01200AF00EFE00BF0EAA00218D48F6
:1069A00000680AF0ECF80EAA00218B4800680AF093
:1069B000E6F806F062FB09A9884802F06EF909982A
:1069C00004900A9805900B9806900C9807900D98E3
:1069D0000890834800780A2805DA81480078401C2E
:1069E0007F49087080E040F6E441079848434FF43F
:1069F0009051B0FBF1F528460BF0A4FD81464946C5
:106A000078480BF098FB07460BF0F8FD05460E465C
:106A100048460BF0F3FD07464FF03332724B0BF054
:106A2000A7FC2A463346CDE900010BF013FD824650
:106A30000BF028FE81464846FFF740FF6B4908707F
:106A4000084690F90000642806DD6948007C20F0C3
:106A50000200801C66490874664890F900006428AA
:106A600006DD6348407C20F00200801C60494874C9
:106A700040F6E441069848434FF49051B0FBF1F5DD
:106A800028460BF05FFD8146494656480BF053FB04
:106A900007460BF0B3FD05460E4648460BF0AEFD2B
:106AA00007464FF03332504B0BF062FC82462A46C9
:106AB00033460BF0CFFCCDE900010BF0E3FD81463E
:106AC0004846FFF7FBFE4B490870484890F9000024
:106AD000642804DC084690F90000642804DD0821DD
:106AE0004548006809F079FE08980BF02BFD074631
:106AF0003C490BF026FB064640490BF054FB05468B
:106B00000BF04FFD044604EB4400840046F2A8104D
:106B1000844205D93648C07E20F020003449C8762A
:106B200047F23050844209D9201A4FF47A71B0FBF1
:106B3000F1F0C8302E4981F8220024E044F62060AC
:106B4000844212D947F2305084420ED8A4F59C40BA
:106B5000203800EB800040004FF47A71B0FBF1F078
:106B60006430234981F822000DE064B144F62060CE
:106B7000844208D804EB84004FF47A71B0FBF1F042
:106B80001B4981F822001E480088401C1C490880CF
:106B9000084600880C2807DB002008801948C068D8
:106BA00080F400701749C8600121084805F063FAB5
:106BB0000121074805F05FFA02200AF0FBFCECE631
:106BC000D03A01081C00002056000020002401409B
:106BD000003C01402C000020300000202C3500201B
:106BE0005900002000404E4533F348405700002034
:106BF0005C3800205800002048000020000090452C
:106C000054000020002001401FB500BF0027E04ACB
:106C100007CA8DE8070000BFB846B94600BF06F0B6
:106C20002CFA6B4605220021502003F07FFA052044
:106C30000AF0C0FC03AA0021D648006809F09FFFB3
:106C400003AA0021D448006809F099FFD348407D89
:106C500000F0800000287DD1D048807D00F08000C9
:106C60000028F8D1CE484078502874D1CD484078DB
:106C70005028FAD10E21CA4804F0DCFE84B2C8487C
:106C8000807BC749C97B00EB0120A04246D1C448A4
:106C9000007AC549C870C248407A8870C048807977
:106CA0004870BF48C079087008460068BF49096845
:106CB000401ABF49086008460668002E01DB3146CD
:106CC00000E0714208460BF034FC8246B9490BF0F3
:106CD000FFFC1AD2B6480068002807DDB4480068F7
:106CE0006FF00041401AB24908600EE0B0480068F9
:106CF0006FF000410844AE490860A84890F82C00A5
:106D000040F00200A54981F82C00A9480068AA4972
:106D10000860A5480068A549086007E09F4890F80A
:106D20002C0040F004009D4981F82C000E219D4864
:106D300004F080FE85B29B48807B9A49C97B00EBBA
:106D40000120A84249D19748007A9C49C8709548CB
:106D5000407A01E0FFE0F8E088709248807948705E
:106D60009048C07908700846006895490968401A3B
:106D70009449086008460668002E01DB314600E0B1
:106D8000714208460BF0D5FB82468A490BF0A0FC05
:106D90001AD28C480068002807DD8A4800686FF026
:106DA0000041401A874908600EE0864800686FF08D
:106DB0000041084483490860784890F82C0040F06E
:106DC0002000764981F82C007E4800687E490860E2
:106DD0007A4800687A49086007E0704890F82C000B
:106DE00040F040006D4981F82C006D48C07A6C4934
:106DF000897A00EB012087B2384604F021FF674909
:106E0000497D01F0E0010843644948756548C07A4E
:106E10006449897A00EB012087B2384604F010FFFC
:106E20005E49897D01F0E00108435C4988750846A8
:106E3000807D10B90846407D20B118216348006864
:106E400009F0CBFC5648407B544908760846007E42
:106E500028B90846407D40F02000487505E04F48BD
:106E6000407D20F020004D4948754E48407B4B49FD
:106E700048760846407E28B90846807D40F02000CC
:106E8000887505E04548807D20F0200043498875DD
:106E9000434840794249097900EB01201FFA80F804
:106EA000404840793F49097900EB01201FFA80F9F9
:106EB0003A48007EF8B14649464800680BF008FCA5
:106EC00019D2B8F1000F16D143480078401C42494E
:106ED000087008460078642810DB642008701621CA
:106EE0003A48006809F079FC2C48407D40F04000A9
:106EF0002A49487502E00020374908702748407E3B
:106F0000F8B13349354800680BF0E2FB19D2B9F10A
:106F1000000F16D132480078401C314908700846ED
:106F20000078642824DB6420087016212748006854
:106F300009F053FC1948807D40F0400017498875DE
:106F400016E000202649087012E000201A49086067
:106F50001D4908600CE00020174908601A490860C4
:106F60000E4890F82C0040F088000C4981F82C0065
:106F70000020194908701A4908701A488268124896
:106F8000006841420C4800684042904747E60000D4
:106F9000103D010834000020380000205C3800203B
:106FA000B8430020DA430020740000205C00002079
:106FB0008C000020E4FCFF4E8400002078000020BC
:106FC0006000002090000020880000204800002081
:106FD000EBA57E430C01002094000020100100204E
:106FE00095000020F8000020ADF5507D0020CE90E7
:106FF0008346CD904FF480718DA80BF032F84FF49A
:1070000080714DA80BF02DF800204C9000244B907F
:10701000202143A80BF025F800270025A1460020D9
:107020003F904090419042903E90824600261090C2
:107030001190129001F02BFB0120FE490861012103
:10704000FD4807F0E0F907F013FBFC490860FFF783
:1070500023FBFFF790FBF948006807F00DFB4FF4A6
:107060000070F74948610121F64805F05CFF02F025
:107070003DFD00BF0121F44800F0704000F10070B8
:10708000F14AC2F3130200EB4210016000BFEF4867
:10709000C07E20F00100401CEC49C87600BF0121F1
:1070A000EB4806F003FE0020E9492431088000BFC8
:1070B0000121E84806F0FAFD0121E74807F0A3F9AD
:1070C00005F0E0FFE148C07E20F00200801CDF49AF
:1070D000C87601200AF06EFA00BFCEAA6421DF480C
:1070E000006809F04CFD9DF83803002872D1FF229A
:1070F000DB498DA80AF09CFF05F0BFFFD948006866
:1071000009F0F2FDCEAA1921D748006809F041FE26
:1071100000204B90002407E08DA8015D4B980844A7
:10712000C0B24B90601CC4B29DF83502801EA042D4
:10713000F2DC9DF834025A28CFD19DF83502401E6A
:107140008DA9085CA528C8D19DF83502801E095C70
:107150004B988142C1D19DF836024C904C986038D2
:10716000102879D2DFE800F0081A2637424F596A12
:1071700079FEFD78FC78FBFAB448C07E20F002006E
:10718000B249C8760846C07EC0F340008DF80C01B5
:1071900043AA01214C9803F05AF9ABE3AB48C07EF7
:1071A000C0F340008DF80C0143AA01214C9803F074
:1071B0004EF99FE39DF83702A44981F8250008465F
:1071C00090F825008DF80C0143AA01214C9803F09A
:1071D0003EF98FE390E39D4890F827008DF80C016D
:1071E00043AA01214C9803F032F983E308209F4918
:1071F0000870084600788DF80C0143AA01214C98CC
:1072000003F025F976E3994800788DF80C0143AA3C
:1072100001214C9803F01BF96CE39548007860B9A4
:107220008A48407D8DF80C018848807D8DF80D01DD
:1072300043AA02214C9803F00AF95BE38348407D9E
:107240008DF80C018148807D8DF80D0143AA022143
:107250004C9803F0FCF84DE346E39DF838129DF896
:10726000372201EB02200BF064F983469DF83A12B5
:107270009DF8392201EB02200BF05BF9CD907D499E
:1072800058460BF025FA0AD259467B480AF053FFBC
:107290004FF07E510F900AF0FCFE80F0004B7549D4
:1072A000CD980BF015FA0BD27348CD990AF043FF35
:1072B0004FF07E510F900AF0ECFE80F00040CD9030
:1072C000CDF840B0CD9811906C4910980860119895
:1072D000486010A96A48006809F07FFA5B48C078E6
:1072E0008DF80C01594880788DF80D015748407889
:1072F0008DF80E01554800788DF80F015348C0797C
:107300008DF81001514880798DF811014F4840796E
:107310008DF812014D4800798DF813014B48C07A61
:107320008DF814014948807A8DF815014748407A54
:107330008DF816014548007A8DF817014348808979
